:020000040800F2
:1000000000000220013B0008E5350008E735000844
:10001000E9350008EB350008ED3500080000000068
:10002000000000000000000000000000EF350008A4
:10003000F135000800000000F3350008F535000830
:10004000513B0008513B0008513B0008513B000860
:10005000513B0008513B0008513B0008513B000850
:10006000513B0008513B0008513B0008513B000840
:10007000513B0008513B0008513B0008513B000830
:10008000513B0008513B0008513B000800000000B4
:10009000000000000000000000000000513B0008CC
:1000A000513B0008FD350008513B0008513B00085A
:1000B000513B0008513B0008513B0008513B0008F0
:1000C000513B0008513B0008513B0008513B0008E0
:1000D000513B0008513B0008513B00080000000064
:1000E000513B0008513B0008513B00080000000054
:1000F000000000000000000000000000513B00086C
:1001000000000000513B0008513B0008513B000833
:1001100000000000000000000000000000000000DF
:10012000513B0008513B0008513B0008513B00087F
:10013000513B00080000000000000000000000002B
:100140000000000000000000000000000D36000864
:10015000513B0008513B0008513B0008513B00084F
:10016000513B0008513B0008000000000000000067
:10017000000000000000000000000000000000007F
:1001800000000000513B00080000000000000000DB
:08019000513B0008513B00083F
:1001980010B5054C237833B9044B13B10448AFF3B9
:1001A80000800123237010BDE00100200000000042
:1001B8004C3D000808B5034B1BB103490348AFF396
:1001C800008008BD00000000E40100204C3D00084C
:1001D80053B94AB9002908BF00281CBF4FF0FF31A6
:1001E8004FF0FF3000F072B9ADF1080C6DE904CEA4
:1001F80000F006F8DDF804E0DDE9022304B07047FA
:100208002DE9F047089E04468846002B4BD18A42C8
:10021800154667D9B2FA82F24AB1C2F1200701FA4B
:1002280002F320FA07F7954047EA030894404FEA9B
:10023800154E230CB8FBFEF71FFA85FC0EFB17883A
:1002480043EA084307FB0CF1994209D9EB1807F177
:10025800FF3080F01B81994240F21881023F2B4405
:100268005B1AA4B2B3FBFEF00EFB103344EA03445E
:1002780000FB0CFCA44509D92C1900F1FF3380F0D0
:100288000781A44540F2048102382C4440EA074023
:10029800A4EB0C0400271EB1D4400023C6E9004398
:1002A8003946BDE8F0878B4209D9002E00F0EB8073
:1002B8000027C6E9000138463946BDE8F087B3FA99
:1002C80083F7002F47D18B4202D3824200F2FA8093
:1002D800841A61EB030301209846002EE0D0C6E99A
:1002E8000048DDE702B9FFDEB2FA82F2002A40F0E8
:1002F8008F80491B4FEA154E1FFA85F80127B1FB7D
:10030800FEFC230C0EFB1C1143EA014308FB0CF115
:10031800994207D9EB180CF1FF3002D2994200F24A
:10032800CD808446591AA3B2B1FBFEF00EFB10141F
:1003380043EA044408FB00F8A04507D92C1900F14A
:10034800FF3302D2A04500F2B6801846A4EB080499
:1003580040EA0C409FE7C7F1200CBB4022FA0CFE94
:100368004EEA030E01FA07F420FA0CF521FA0CF311
:100378004FEA1E482543B3FBF8F92C0C08FB193348
:100388001FFA8EFA44EA034309FB0AF49C4202FA74
:1003980007F200FA07F10BD91EEB030309F1FF304E
:1003A80080F087809C4240F28480A9F1020973445E
:1003B8001B1BADB2B3FBF8F008FB103345EA03444E
:1003C80000FB0AFAA24508D91EEB040400F1FF332A
:1003D8006BD2A24569D90238744440EA0940A0FBAF
:1003E8000289A4EB0A044C45C2464B4654D351D06B
:1003F800002E69D0B1EB0A0564EB030404FA0CFC87
:10040800FD40FC404CEA0505C6E90054002747E7D3
:10041800C2F1200320FA03F7954001FA02F021FA0D
:1004280003F34FEA154E3843010CB3FBFEF71FFAEE
:1004380085F80EFB173341EA034107FB08F38B42AB
:1004480004FA02F407D9691807F1FF3C2FD28B424E
:100458002DD9023F2944CB1A81B2B3FBFEF00EFB23
:10046800103341EA034100FB08F38B4207D96918AE
:1004780000F1FF3C17D28B4215D902382944C91A1A
:1004880040EA07473BE73746304609E70746E7E6CD
:100498001846FBE64145ABD2B8EB020A69EB0E02FF
:1004A80001381346A4E76046E9E7184695E767462A
:1004B800D1E781467CE702382C4447E7ACF1020CCF
:1004C8002B442FE7384608E73746E9E6704700BF70
:1004D80010B504460E4B18784FF47A73B3FBF0F35B
:1004E8000C4A1068B0FBF3F000F0AAF868B90F2CBA
:1004F80001D901200AE0002221464FF0FF3000F028
:100508005DF8034B5C60002000E0012010BD00BFD7
:10051800000000201801002008B50B4B1A6842F4AF
:1005280000721A601A6842F480621A601A6842F40B
:1005380080721A60032000F02FF80020FFF7C8FF30
:1005480003F00CF8002008BD003C0240034A116883
:10055800034B1B780B441360704700BF1402002044
:1005680000000020014B1868704700BF14020020EB
:1005780038B50446FFF7F6FF0546B4F1FF3F02D051
:10058800044B1B781C44FFF7EDFF401BA042FAD335
:1005980038BD00BF00000020074AD36823F4E06399
:1005A8001B041B0C000200F4E060184340F0BF601D
:1005B80040F40030D060704700ED00E030B4174BD5
:1005C800DB68C3F30223C3F10704042C28BF042407
:1005D8001D1D062D18D9033B4FF0FF3505FA04F40D
:1005E80021EA0401994005FA03F322EA03031943B7
:1005F80000280BDB0901C9B200F1604000F5614039
:1006080080F8001330BC70470023E5E700F00F00C6
:100618000901C9B2024B1954F4E700BF00ED00E02C
:1006280014ED00E0002807DB00F01F024009012359
:100638009340024A42F82030704700BF00E100E0D2
:100648000138B0F1807F0AD2064B5860064AF02183
:1006580082F823100020986007221A607047012052
:10066800704700BF10E000E000ED00E000230F2B12
:1006780000F2C580F0B482B039E0042200E0002224
:10068800B2403A4302345E4E46F824205D4A14686C
:10069800EA4302EA04064F6817F4803F01D045EAAE
:1006A8000406584C2660646802EA04064F6817F48A
:1006B800003F01D045EA0406524C6660A46802EA8D
:1006C80004064F6817F4801F01D045EA04064D4C14
:1006D800A660E46822404E6816F4001F01D045EA7F
:1006E8000402484CE26001330F2B00F2858001229E
:1006F8009A400C6804EA0205AA42F4D14C68022C1C
:1007080001D0122C10D1DE08083650F826C003F0AC
:100718000704A7000F24BC402CEA040C0C69BC4059
:1007280044EA0C0440F8264004685F000326BE40F3
:10073800F64306EA040C4C6804F00304BC4044EA9F
:100748000C0404604C6804F1FF3CBCF1010F03D9B0
:10075800112C01D0122C10D1846806EA040CCC6844
:10076800BC4044EA0C048460446824EA02024C68F1
:10077800C4F300149C4014434460C26816408A685D
:10078800BA403243C2604A6812F0805FABD00022A0
:1007980001921D4A546C44F480445464526C02F42F
:1007A80080420192019A9C08A61C154A52F82670AC
:1007B80003F0030296000F22B24027EA0207134A09
:1007C80090423FF45CAF02F5806290420ED002F591
:1007D800806290420CD002F5806290420AD002F505
:1007E800806290423FF449AF072249E7012247E778
:1007F800022245E7032243E702B0F0BC7047704786
:1008080000380140003C014000380240000002402E
:100818000369194201D1002070470120704712B9BD
:10082800090481617047816170472DE9F04782B002
:100838000768CA00521A930003445A6D1B6D9A4206
:1008480057D8B8469B1AC1EBC104A2000244526CA7
:100858009A4200D31A460C46064602F1030A4FEAAA
:100868009A0A16E009F1030A4FEA9A0AE3001B1BE9
:100878009D003544A96C337C00931FFA89F3E2B2DA
:10088800384601F0D3FCAB6C4B44AB646B6D4B4406
:100898006B6508EB441303F510639B699BB25345E2
:1008A80013D3E3001B1B9A003244516D136D994218
:1008B8000BD253B15B1AC4EBC4018A003244D2F89C
:1008C80044909945CED39946CCE7E3001B1B98008A
:1008D8000644326D736D9A420FD804F00F0401215B
:1008E800A140D7F8344824EA0104C7F83448002066
:1008F80000E0012002B0BDE8F0870020FAE7F0B57B
:100908008BB0002800F08A800446056890F8BD3353
:1009180023B3032384F8BD33EB6B13F4807F01D139
:1009280000232361206801F033FA254655F8107B2F
:100938006E460FCD0FC60FCD0FC695E8030086E8AB
:100948000300231D0ECB384601F060F958B102238D
:1009580084F8BD33012528460BB0F0BD80F8BC33C0
:1009680002F0ECFED5E70021206801F017FA002319
:1009780015E0D900C81A82002244012082F83D00FF
:1009880082F83C30A2F84230002082F83F005064E0
:100998009064CA1A9100214408650133DBB2656886
:1009A800AB42E6D3002315E0D800C11A8A002244DE
:1009B800002182F8FD1182F8FC3182F8FF11C2F89B
:1009C8000412C2F80812C21A90002044C0F810128B
:1009D8000133DBB29D42E7D8254655F8107B6E46B9
:1009E8000FCD0FC60FCD0FC695E8030086E80300AC
:1009F800231D0ECB384601F017FA054620B1022315
:100A080084F8BD330125A6E7002384F83830012394
:100A180084F8BD33206801F0B6FD9CE701259AE70C
:100A2800026890F8BC33012B19D010B5012380F867
:100A3800BC33836A012B0AD00446006801F097FD95
:100A4800206801F09FF9002084F8BC0310BD836979
:100A5800012BF1D0936B43F480339363ECE70220CE
:100A68007047000070B505460E460368196C03EB25
:100A7800461303F53064A3680269012A0FD0354A8A
:100A8800914261D113F4004F5AD113F0200F01D0D5
:100A98002023A360F1B2284602F09AFE57E013F033
:100AA800080F14D02C4A914205D913F4004F02D0F4
:100AB8004FF40043A360284602F082FE05F57172E8
:100AC8000121286801F0BCFD0823A3603FE013F072
:100AD800200F2ED113F0280F39D11F4A914202D985
:100AE80013F4004F28D1F200921B93002B44D3F843
:100AF80004222169C1F31201521AC3F81422D3F84F
:100B08000412D3F808220A44C3F80822F1B228468E
:100B180002F05EFEDEB9C6EBC606B3002B44D3F87E
:100B28001032A3B905F571720121286801F088FD1A
:100B38000DE02023A3600AE04FF40043A36006E021
:100B48004FF40043A36002E0F1B202F041FE00203E
:100B580070BD00BF0A31544F0A30544F38B50446AF
:100B680003681D6C03EB411101F530618A68036964
:100B7800012B0DD0124B9D4214D0204602F020FECE
:100B8800104B9D4202D92369012B12D0002038BD99
:100B98000C4B9D42F1D912F4004FEED04FF40043B4
:100BA8008B60EAE712F4004FE7D04FF400438B6004
:100BB800E3E704F571720121206801F041FDE5E7E2
:100BC8000A31544F0A30544F2DE9F84F044605684E
:100BD800284601F015FD08B1BDE8F88F2F460646F6
:100BE800206801F0DCFC0028F6D0206801F0D7FC72
:100BF80010F0020F04D02268536903F00203536116
:100C0800206801F0CCFC10F4002F74D1206801F0AA
:100C1800C6FC10F4802F40F0C280206801F0BFFCB1
:100C28000028C0F23481206801F0B9FC10F4006F8C
:100C38000AD0D5F8083813F0010F40F04281226835
:100C4800536903F400635361206801F0A8FC10F4B1
:100C5800805F40F03A81206801F0A1FC10F4005F49
:100C680040F08D81206801F09AFC10F0100F14D02C
:100C78002268936923F0100393612E6A06F00F0728
:100C8800C6F34343022B00F09281062B00F0B0819B
:100C98002268936943F010039361206801F07FFC98
:100CA80010F0080F40F0B681206801F078FC10F4CD
:100CB800801F40F0B881206801F071FC10F4001F1B
:100CC80040F0BB81206801F06AFC10F0804F40F0D2
:100CD800BE81206801F063FC10F0040F3FF47CAF84
:100CE80023685D6815F0040F40F0BA8122685368E4
:100CF8002B43536070E7206801F055FC8046B146ED
:100D080025E007EB49130122C3F8082B4946204682
:100D1800FFF7A8FE2BE049462046FFF71FFF07EB29
:100D280049130822C3F8082B24E007EB49132022B3
:100D3800C3F8082B1AF4005F05D007EB49134FF4EA
:100D48000052C3F8082B09F101094FEA5808B8F115
:100D5800000F3FF45BAF18F0010FF4D05FFA89F190
:100D6800206801F030FC824610F0010FC9D11AF05A
:100D7800080FD0D11AF0100F04D007EB4913102236
:100D8800C3F8082B1AF0200FD4D02369012BCCD13B
:100D980004F571720121206801F052FCC5E7206852
:100DA80001F009FC8046B14631E04FEAC902A2EBE6
:100DB800090293002344596C9A6C0A449A6449E0E6
:100DC8001AF0080F04D007EB49130822C3F80829C2
:100DD8001AF0100F04D007EB49131022C3F80829A2
:100DE8001AF0400F04D007EB49134022C3F8082932
:100DF8001AF0020F04D007EB49130222C3F808299E
:100E08001AF0800F3ED109F101094FEA5808B8F1EC
:100E1800000F3FF402AF18F0010FF4D05FFA89FB1E
:100E28005946206801F0D8FB824610F0010FC7D060
:100E380009F00F03012101FA03F2D7F8343823EA45
:100E48000203C7F8343807EB4913C3F808192369B4
:100E58008B42AAD05946204602F0C6FC2369012BD2
:100E6800AED1B9F1000FABD1C9EBC902930023444D
:100E78001B6D002BA4D104F571720121206801F0CB
:100E8800DFFB9DE749462046FFF7CFFCBBE7D5F8D7
:100E9800043823F00103C5F8043894F8F433012B1F
:100EA80008D0204602F0DAFC2268536903F00043B8
:100EB8005361B8E6002184F8F413204600F061FA83
:100EC800F2E7204602F0B2FCB9E605F50068D8F86A
:100ED800043023F00103C8F804301021206800F022
:100EE80075FF14E007EB46134FF67F31C3F8081976
:100EF800D3F8002922F40012C3F80029C3F8081B0C
:100F0800D3F8002B22F40012C3F8002B01366368D3
:100F1800B342E7D8D8F81C3043F00113C8F81C30A6
:100F2800236BEBB1D8F8843043F00B03C8F8843056
:100F3800D8F8443043F00B03C8F84430D5F80038EB
:100F480023F4FE63C5F8003804F57172217C20682B
:100F580001F076FB2268536903F4805353617AE603
:100F6800D8F8143043F4005343F02B03C8F8143076
:100F7800D8F8103043F00B03C8F81030DEE72068CB
:100F880001F042FB206801F01FF8E060266800F0DD
:100F9800DDFC227B0146304600F07EFE204602F052
:100FA80034FC2268536903F4005353615AE647F648
:100FB800F0731E423FF46CAE4FEAC709A9EB070372
:100FC8004FEA8308A0443609C6F30A02D8F8081283
:100FD800284601F04DFAC6F30A06D8F80832334419
:100FE800C8F80832D8F814321E44C8F814624FE61C
:100FF800082204F57171284601F03AFAC6F30A1678
:10100800FB00D91B8A002244D2F814321E44C2F8CD
:1010180014623DE6204602F0F2FB2268536903F0B1
:101028000803536140E60021204602F023FC2268B1
:10103800536903F4801353613DE60021204602F012
:1010480013FC2268536903F4001353613AE62046FF
:1010580002F016FC2268536903F08043536138E6B6
:10106800204602F013FC41E690F8BC33012B0DD06A
:1010780010B50446012380F8BC3380F838100068A6
:1010880001F065FA002084F8BC0310BD0220704707
:10109800F8B511F0800F28D101F00F06F500AF1B4D
:1010A800BC00274604F5FC74044404343E46064458
:1010B800002586F8FD5101F00F012170A260E37050
:1010C800627802B1E180022B1ED090F8BC33012B6C
:1010D8001DD00546012380F8BC332146006800F086
:1010E80084FF002085F8BC03F8BD01F00F06F50069
:1010F800AF1BBC0027463834044404343E4606443B
:10110800012586F83D50D6E700232371DDE702204C
:10111800EAE738B511F0800F21D101F00F05EA0098
:10112800541BA3001C4603F5FC73034404332546F3
:101138000544002285F8FD2101F00F01197090F88F
:10114800BC23012A1AD00446012280F8BC23194680
:10115800006800F095FF002084F8BC0338BD01F05A
:101168000F04E200151BAB001D463833034404335B
:101178002C460444012284F83D20DDE70220EDE7F7
:1011880070B501F00F05EE00711B8C0004F5FC74BE
:101198000444211D761BB4000444C4F80822C4F892
:1011A80010320023C4F8143284F8FD3184F8FC515D
:1011B8000369012B06D065B1DAB2006801F04AF87C
:1011C800002070BDC5EBC506B4000444C4F80C2269
:1011D800F1E7DAB2006800F09BFFF1E701F00F01D8
:1011E800C1EBC1018B001844D0F81402704770B5E8
:1011F80001F00F05EE00711B8C0038340444211DEA
:10120800761BB4000444A2642365002363650123AC
:1012180084F83D3084F83C500369012B06D05DB159
:10122800DAB2006801F016F8002070BDC5EBC506FB
:10123800B4000444E264F2E7DAB2006800F068FF40
:10124800F2E738B501F00F0543689D4236D811F032
:10125800800F20D1CA00541AA3001C4603F5FC7362
:101268000344043322460244002182F8FD1101227E
:101278009A701D7090F8BC23012A21D004460122DF
:1012880080F8BC231946006801F006F97DB10020FA
:1012980084F8BC0313E0EA00511B8B00194638336D
:1012A800034404330144012281F83D20DFE704F5BB
:1012B8007172217C206801F0C3F9E8E7012038BD8C
:1012C8000220FCE710B501F00F0443689C422CD8BB
:1012D80011F0800F1DD1E3001A1B91000A4601F599
:1012E800FC71014404310244002382F8FD310023DB
:1012F8008B700C7090F8BC33012B18D00446012376
:1013080080F8BC33006801F0F4F8002084F8BC03CE
:101318000CE0E3001A1B91000A46383101440431FD
:101328000244012382F83D30E1E7012010BD02208C
:10133800FCE730B40468606A29B10D46A36A00EB83
:10134800134000230CE040EA0240A06212E003F1DF
:10135800400104EB8101496800EB11400133DBB225
:10136800691E8B42F3D340EA024005F13F0104EBCA
:1013780081014860002030BC704703685962002032
:1013880070477047002800F0BB8170B582B00446F2
:10139800036813F0010F3BD0A74B9B6803F00C03C5
:1013A800042B2CD0A44B9B6803F00C03082B21D0F2
:1013B8006368B3F5803F4FD0B3F5A02F52D09E4B52
:1013C8001A6822F480321A601A6822F480221A609D
:1013D8006368002B50D0FFF7C5F80546964B1B688D
:1013E80013F4003F14D1FFF7BDF8401B6428F5D96A
:1013F80003208AE1904B5B6813F4800FD8D08E4BA2
:101408001B6813F4003F03D06368002B00F07A8157
:10141800236813F0020F55D0874B9B6813F00C0F0D
:101428003ED0854B9B6803F00C03082B33D0E36850
:10143800002B68D0814B01221A60FFF793F805460C
:101448007D4B1B6813F0020F54D1FFF78BF8401B3C
:101458000228F5D9032058E1774A136843F480330A
:101468001360B5E7744B1A6842F480221A601A6850
:1014780042F480321A60ABE7FFF774F805466E4B0A
:101488001B6813F4003FC3D0FFF76CF8401B6428B7
:10149800F5D9032039E1684B5B6813F4800FC6D196
:1014A800654B1B6813F0020F04D0E368012B01D0D1
:1014B80001202AE1604A136823F0F803216943EA0E
:1014C800C1031360236813F0080F40D0636963B346
:1014D8005B4B01221A60FFF745F80546564B5B6FD8
:1014E80013F0020F33D1FFF73DF8401B0228F5D95E
:1014F80003200AE1504A136823F0F803216943EAFC
:10150800C1031360DEE74D4B00221A60FFF72AF88B
:101518000546494B1B6813F0020FD3D0FFF722F89A
:10152800401B0228F5D90320EFE0454B00221A6042
:10153800FFF718F80546404B5B6F13F0020F06D013
:10154800FFF710F8401B0228F5D90320DDE02368D7
:1015580013F0040F79D0384B1B6C13F0805F33D134
:1015680000230193344B1A6C42F080521A641B6CAE
:1015780003F080530193019B0125324B1B6813F440
:10158800807F23D0A368012B34D0052B38D02A4B79
:101598001A6F22F001021A671A6F22F004021A6702
:1015A800A368002B36D0FEF7DDFF0646224B1B6FE3
:1015B80013F0020F48D1FEF7D5FF801B41F28833A4
:1015C8009842F3D90320A0E00025D6E71D4A136806
:1015D80043F480731360FEF7C5FF0646194B1B687A
:1015E80013F4807FCED1FEF7BDFF801B0228F5D90A
:1015F80003208AE0104A136F43F001031367CFE713
:101608000D4B1A6F42F004021A671A6F42F001027A
:101618001A67C5E7FEF7A6FF0646074B1B6F13F0D0
:10162800020F11D0FEF79EFF801B41F288339842CB
:10163800F3D9032069E000BF0038024000004742A8
:10164800800E474200700040E5B9A369002B5BD0CB
:10165800304A926802F00C02082A58D0022B17D0A0
:101668002D4B00221A60FEF77DFF0446294B1B68AC
:1016780013F0007F42D0FEF775FF001B0228F5D952
:10168800032042E0234A136C23F080531364DCE701
:10169800214B00221A60FEF765FF05461D4B1B68AB
:1016A80013F0007F06D0FEF75DFF401B0228F5D936
:1016B80003202AE0E369226A1343626A43EA821339
:1016C800A26A5208013A43EA0243E26A43EA026321
:1016D800104A5360104B01221A60FEF743FF04467C
:1016E8000C4B1B6813F0007F06D1FEF73BFF001B75
:1016F8000228F5D9032008E0002006E0002004E0D5
:1017080001207047012000E0002002B070BD0120D8
:10171800FBE700BF0038024060004742324B9B683D
:1017280003F00C03042B5CD0082B01D02F48704722
:101738002DE9F04B2C4B5A6802F03F025B6813F41A
:10174800800F2BD0284B5B68C3F388131E460027F5
:101758005C010025E41A65EB0705A90141EA9461DB
:10176800A001001B61EB0501CB0043EA5073C400E4
:10177800A01943EB07014B0243EAD0534402204629
:1017880019460023FEF724FD174B5B68C3F301439A
:1017980001335B00B0FBF3F0BDE8F08B124B5B68E4
:1017A800C3F388131E4600275C010025E41A65EB85
:1017B8000705A90141EA9461A001001B61EB05013D
:1017C800CB0043EA5073C400A01943EB07018B0216
:1017D80043EA90538402204619460023FEF7F8FC9A
:1017E800D2E70348704700BF003802400024F400E5
:1017F80000127A00002800F09D8070B504464F4B17
:101808001B6803F00F038B4209D2CBB24B4A13700B
:10181800136803F00F038B4201D0012070BD2368C9
:1018280013F0020F17D013F0040F04D0444A936842
:1018380043F4E0539360236813F0080F04D0404A40
:10184800936843F4604393603D4A936823F0F00340
:10185800A068034393600D46236813F0010F32D04C
:101868006368012B21D09A1E012A25D9344A1268AF
:1018780012F0020F60D032498A6822F00302134343
:101888008B60FEF76FFE06462D4B9B6803F00C033A
:101898006268B3EB820F16D0FEF764FE801B41F23C
:1018A80088339842F0D90320B8E7254A126812F421
:1018B800003FE0D10120B1E7214A126812F0007F11
:1018C800D9D10120AAE71D4B1B6803F00F03AB42D7
:1018D80009D9EAB2194B1A701B6803F00F03AB421F
:1018E80001D001209AE7236813F0040F06D0144AA8
:1018F800936823F4E053E1680B439360236813F083
:10190800080F07D00E4A936823F46043216943EA1D
:10191800C1039360FFF702FF094B9B68C3F30313EE
:10192800084AD35CD840084B18600020FEF7D0FD69
:10193800002073E70120704701206FE7003C024058
:1019480000380240643D000818010020014B186867
:10195800704700BF180100200268D36843F00103F4
:10196800D3600268936803F00703062B03D013685B
:1019780043F00103136000207047704770477047B9
:10198800704710B5044603681A6912F0020F11D0A7
:10199800DA6812F0020F0DD06FF002021A6101230B
:1019A800037703689B6913F0030F70D0FFF7E6FF16
:1019B8000023237723681A6912F0040F12D0DA681B
:1019C80012F0040F0ED06FF004021A61022323777D
:1019D80023689B6913F4407F5FD02046FFF7CEFF52
:1019E8000023237723681A6912F0080F12D0DA68E7
:1019F80012F0080F0ED06FF008021A610423237743
:101A08002368DB6913F0030F4ED02046FFF7B6FFBB
:101A18000023237723681A6912F0100F12D0DA68AE
:101A280012F0100F0ED06FF010021A6108232377FE
:101A38002368DB6913F4407F3DD02046FFF79EFF03
:101A48000023237723681A6912F0010F03D0DA689C
:101A580012F0010F36D123681A6912F0800F03D0F3
:101A6800DA6812F0800F34D123681A6912F0400F37
:101A780003D0DA6812F0400F32D123681A6912F0E5
:101A8800200F03D0DA6812F0200F30D110BDFFF715
:101A980074FF2046FFF773FF8AE72046FFF76DFFC4
:101AA8002046FFF76CFF9BE72046FFF766FF2046BE
:101AB800FFF765FFACE72046FFF75FFF2046FFF71B
:101AC8005EFFBDE76FF001021A61204601F0B2FC2B
:101AD800C1E76FF080021A61204600F077F8C3E78B
:101AE8006FF040021A612046FFF74AFFC5E76FF022
:101AF80020021A61204600F068F8C7E70368254A03
:101B080090420ED0B0F1804F0BD0A2F57C429042AB
:101B180007D002F58062904203D002F580629042BD
:101B280003D123F070034A6813431A4A90421AD02B
:101B3800B0F1804F17D0A2F57C42904213D002F545
:101B4800806290420FD002F5806290420BD002F57D
:101B58009A32904207D002F58062904203D002F593
:101B68008062904203D123F44073CA68134323F080
:101B780080034A69134303608B68C3620B688362FE
:101B8800044B984202D00123436170470B690363F9
:101B9800F9E700BF00000140A8B110B5044690F86D
:101BA8003D305BB1022384F83D30211D2068FFF7EA
:101BB800A5FF012384F83D30002010BD80F83C309B
:101BC80001F0ECFCEEE70120704770477047000019
:101BD800002301330C4A934211D80269002AF8DA2B
:101BE800036943F00103036100230133064A93426A
:101BF80007D8026912F0010FF7D1002070470320BF
:101C080070470320704700BF400D030084B010B533
:101C1800044603A880E80E00089B012B1FD1A36B84
:101C280023F48033A363E36823F4840323F040039D
:101C3800E360E36823F44013E3600F9B012B09D0B2
:101C48002046FFF7C5FF069B012B1BD0BDE81040BF
:101C580004B07047E36843F48013E360F0E7E36897
:101C680043F04003E3602046FFF7B2FF0C9B23B923
:101C7800A36B43F48033A363E5E7A36B23F48033BA
:101C8800A363E0E7A36843F00603A360A36843F0F7
:101C98002003A360DAE70000022A0AD00921C268FB
:101CA80022F47052C260C36843EA8123C3600020F3
:101CB80070472A4B0B442A4A93423FD9294B0B447D
:101CC800294A93423CD9A1F57403A3F51053274A36
:101CD800934237D9A1F18373A3F5E74302F5C332E1
:101CE800A032934230D9224B0B44224A93422DD939
:101CF800214B0B4402F5922202F57872934227D9C0
:101D08001E4B0B4402F5C32202F52072934221D9DF
:101D1800A1F1B773A3F5585302F5B71202F558723B
:101D2800934219D9164B0B4402F5122202F5F862B8
:101D3800934201D90621B2E70721B0E70F21AEE7A8
:101D48000E21ACE70D21AAE70C21A8E70B21A6E795
:101D58000A21A4E70921A2E70821A0E7405327FFA9
:101D6800FF340C00401E1BFF3F420F007F4F120044
:101D780060B6E5FE5FE3160000D3CEFEC05BB3FE9F
:101D8800E05459FE836843F00103836000207047E4
:101D9800836823F0010383600020704708B5C36897
:101DA80023F0C043C360012909D069B9C36843F06F
:101DB8008043C3603220FEF7DBFB002008BDC36808
:101DC80043F00053C360F5E70120F7E7890141F0CC
:101DD8002001016100230133054A934205D80269B5
:101DE80012F0200FF7D1002070470320704700BF82
:101DF800400D03001023036100230133054A934279
:101E080005D8026912F0100FF7D10020704703209F
:101E1800704700BF400D0300D0F800381943C0F8E0
:101E2800001800207047000084B02DE9F0410446F6
:101E380007A880E80E002546002306E003F14002CB
:101E480004EB82020021516001330E2BF6D9119B5D
:101E5800F3B9A36B43F40013A363A36B23F4002328
:101E6800A363A36B23F48023A3630023C4F8003E79
:101E780004F50066D4F80038C4F800380C9B012B30
:101E880014D1099B6BB900212046FFF7C5FF11E06B
:101E9800236823F400132360A36B43F40023A36394
:101EA800E3E701212046FFF7B7FF03E003212046BF
:101EB800FFF7B2FF10212046FFF788FF804608B1E0
:101EC8004FF001082046FFF795FF08B14FF00108D1
:101ED800002333617361F3610AE0C3B94FF0006016
:101EE800C2F8000900220A614FF67F328A60013386
:101EF8000799994210D905EB431202F51061D2F8FF
:101F080000090028E9DB0020C2F80009EAE74FF0E1
:101F18009040C2F80009E5E700230AE0BBB14FF0A2
:101F28009047C2F8007B002202614FF67F32826040
:101F38000133994210D905EB431202F53060D2F80B
:101F4800007B002FEADB0027C2F8007BEBE74FF0AD
:101F58000067C2F8007BE6E7336923F480733361D6
:101F68000A9B012B1BD00022A2616FF080426261A4
:101F78001BB9A36943F01003A361A269104B134373
:101F8800A3610D9B1BB1A36943F00803A361119BD7
:101F9800012B0DD04046BDE8F04104B07047094A16
:101FA8003263326B42F4803242F003023263DAE782
:101FB800A36943F0804343F00403A361EAE700BF49
:101FC80000383C8000018000D0F8083813F0060380
:101FD80007D0022B07D0062B01D00F207047022014
:101FE8007047002070470220704770B40B784A7819
:101FF800012A22D0D0F81C2803F00F060124B4408F
:1020080042EA0442C0F81C2800EB4310D0F8003B19
:1020180013F4004F0ED1D0F8003B8A68C2F30A02CD
:10202800C97842EA8142134343F0805343F40043A2
:10203800C0F8003B002070BC7047D0F81C4803F083
:102048000F06B24092B22243C0F81C2800EB43109E
:10205800D0F8002912F4004FECD1D0F800298C6890
:10206800C4F30A04C97844EA814444EA8353134315
:1020780043F0805343F40043C0F80039DAE7000026
:1020880070B40B784A78012A1FD0D0F83C5803F076
:102098000F06012404FA06F625EA0645C0F83C585E
:1020A800D0F81C58097801F00F018C4025EA044447
:1020B800C0F81C4800EB4310D0F8002B124B13401B
:1020C800C0F8003B002070BC7047D0F83C6803F0B3
:1020D8000F0402FA04F4A4B226EA0404C0F83C4847
:1020E800D0F81C48097801F00F018A4092B224EA1E
:1020F8000202C0F81C2800EB4310D0F80039034A4C
:102108001A40C0F80029DDE70078F3EF007833ECD7
:1021180070B40B784C78012C26D000EB431000F5F6
:1021280030631C69E40CE4041C611C6924F0FF544E
:1021380024F4C0141C614C690CB18C684C611C6996
:1021480044F400241C611C698D68C5F312052C43F6
:102158001C61012A65D0D0F8003B43F00443C0F865
:10216800003B002070BC70474C696CBB00EB43140B
:10217800D4F8105925F0FF5525F4C015C4F81059A6
:10218800D4F8105945F40025C4F81059D4F810595A
:10219800ED0CED04C4F81059012A33D000EB4313B9
:1021A800D3F8002942F00442C3F800294B69002BF8
:1021B800D7D0D0F83428097801F00F040121A140C4
:1021C8000A43C0F83428CCE700EB431404F5106444
:1021D8002569ED0CED042561256925F0FF5525F4E9
:1021E800C01525614E698D68AE4200D94D612569DB
:1021F80045F40025256125694E69C6F31206354365
:102208002561C9E70A691AB100EB4311C1F814291D
:1022180000EB4310D0F8002942F00442C0F800292E
:102228009FE7CA68002A96D05A6194E770B49DF86F
:102238000C4064B903339D0807E000EB023303F553
:10224800805351F8046B1E600134AC42F5D3002072
:1022580070BC7047F0B583B00B784C78012C2BD04C
:1022680000EB431303F530642569ED0CED0425619B
:10227800256925F0FF5525F4C01525614D69002D08
:1022880040F0C58025698E68C6F31206354325617E
:10229800256945F400252561012A00F0CD80CA781A
:1022A800012A00F0CF80D3F8002B42F00442C3F893
:1022B800002B002003B0F0BD4C6984BB00EB431435
:1022C800D4F8105925F0FF5525F4C015C4F8105955
:1022D800D4F8105945F40025C4F81059D4F8105909
:1022E800ED0CED04C4F81059012A4CD000EB43134F
:1022F800D3F8004944F00444C3F80049CC78012CD1
:102308006AD04B69002BD4D0D0F83428097801F072
:102318000F040121A1400A43C0F83428C9E700EBA3
:102328004314D4F81059ED0CED04C4F81059D4F83E
:10233800105925F0FF5525F4C015C4F81059D4F8E4
:1023480010694D698F683D44013DB5FBF7F5474F6E
:1023580007EAC5453543C4F81059D4F810594E69F1
:10236800C6F312063543C4F8105904F51064CD7845
:10237800012DB9D1256925F0C0452561256945F0AC
:1023880000552561B0E70A691AB100EB4314C4F897
:102398001429CA78012A08D000EB4313D3F800297E
:1023A80042F00442C3F8002983E7D0F8082812F461
:1023B800807F08D100EB4311D1F8002942F0005288
:1023C800C1F80029E8E700EB4311D1F8002942F0F1
:1023D8008052C1F80029DFE7D0F8084814F4807F5C
:1023E8000ED1D3F8004944F00054C3F8004914460C
:1023F8000B46C9681A789B8A0094FFF717FF58E7BD
:10240800D3F8004944F08054C3F80049EFE78E68D8
:102418003544013DB5FBF6F52669144F07EAC54773
:102428003E43266127698E68ADB206FB05F5C5F304
:1024380012053D4325612FE7CA68002A3FF42FAFF4
:1024480062612CE7D0F8082812F4807F06D1D3F80F
:10245800002B42F00052C3F8002B24E7D3F8002BDE
:1024680042F08052C3F8002B1DE700BF0000F81FA0
:1024780003329208002393420CD210B400F5805422
:10248800246841F8044B01339342F7D308465DF8BA
:10249800044B7047084670470B784A78012A14D0D5
:1024A80000EB4310D0F8002B002A06DB2BB1D0F844
:1024B800003B23F08043C0F8003BD0F8003B43F4D6
:1024C8000013C0F8003B0020704700EB4310D0F821
:1024D8000029002A06DB2BB1D0F8003923F080430D
:1024E800C0F80039D0F8003943F40013C0F80039B7
:1024F800E9E70B784A78012A0ED000EB4310D0F8B0
:10250800003B23F40013C0F8003BCB78023BDBB25E
:10251800012B15D90020704700EB4310D0F8003983
:1025280023F40013C0F80039CB78023BDBB2012B4F
:10253800F0D8D0F8003943F08053C0F80039E9E703
:10254800D0F8003B43F08053C0F8003BE2E7D0F8F6
:10255800003823F4FE63C0F80038D0F800380901C9
:1025680001F4FE610B43C0F800380020704708B53D
:10257800D0F8043823F00203C0F804380320FDF72C
:10258800F7FF002008BD08B5D0F8043843F002036F
:10259800C0F804380320FDF7EBFF002008BD4269AE
:1025A800806910407047D0F8183800F50060C0699D
:1025B8001840000C7047D0F8183800F50060C06962
:1025C800184080B2704700EB4111D1F8082B00F594
:1025D800006040691040704710B4D0F81048D0F837
:1025E800343801F00F02D340DB01DBB2234300EBA8
:1025F800411000F51060806818405DF8044B704782
:10260800406900F001007047D0F8003923F4FF63F7
:1026180023F00703C0F8003900F500639A6802F058
:102628000602042A05D05A6842F480725A600020D3
:102638007047D0F8002942F00302C0F80029F2E7F9
:1026480010B4046C154B9C4203D9D0F8003B002B06
:1026580016DB0024C0F8104BD0F8104B44F40024CB
:10266800C0F8104BD0F8104B44F01804C0F8104BC9
:10267800D0F8104B44F0C044C0F8104B012903D0E7
:1026880000205DF8044B7047C0F8142BD0F8003BCD
:1026980043F08023C0F8003BF2E700BF0A30544FF4
:1026A800704710B5D0F89042D0F894325BB194F8E6
:1026B8000002FF2807D09B6894F80122214698471A
:1026C800FF2384F80032002010BD0000432303805C
:1026D80000487047080000204323038000487047E3
:1026E8004C000020432303800048704790000020DE
:1026F8000A23038000487047D400002038B50446F8
:10270800D0F8905201F013F9C5F80C02D4F89032C1
:102718004BB1D4F89432DB6805F50371D5F804029F
:102728009847002038BD0220FCE770B5D0F8902209
:10273800D0F89852FAB101EB8104A3000344DB6995
:102748004BB1C1EBC106B40025446D6CB3FBF5F485
:1027580005FB14331BB10020C2F8140270BD01EB55
:102768008102930003440024DC612346224601F0E1
:1027780020F92046F2E70220F0E770B582B005465E
:102788000C46D0F8906200238DF80730ADF804307D
:102798000B7813F0600227D0202A56D1CA883AB99C
:1027A800D0F894329B6800224878984700204FE080
:1027B80013F0800F0CD0D0F894329B6831466078C3
:1027C8009847E2883146284600F07AFD00203FE02D
:1027D8004B7886F800328B7986F80132CA88314600
:1027E80000F083FD002033E04B780A2B14D00B2B2C
:1027F80021D01BB100F069FA022029E090F8743268
:10280800032B05D1022201A900F05AFD00201FE088
:1028180000F05BFA02201BE090F87432032B06D11B
:1028280001220DF1070100F04BFD002010E000F03F
:102838004CFA02200CE090F87432032B01D10020EE
:1028480006E000F042FA022002E000F03EFA022020
:1028580002B070BD38B50446812101F08AF8002520
:10286800E5620121204601F084F8C4F8585182211C
:10287800204601F07EF82564D4F890324BB1D4F8A4
:1028880094325B689847D4F8900201F091F9C4F843
:102898009052002038BD38B50446037CA3BB4FF4E2
:1028A80000730222812101F059F80125E5624FF4F5
:1028B800007302222946204601F050F8C4F8585106
:1028C800082303228221204601F048F801232364CB
:1028D8004FF4077001F064F90546C4F8900268B334
:1028E800D4F894321B6898470023C5F81432C5F809
:1028F8001832237CC3B14023D5F804220121204695
:1029080001F05FF8002038BD40230222812101F048
:1029180025F80125E562402302222946204601F0D8
:102928001DF8C4F85851CBE74FF40073D5F80422CA
:102938000121204601F045F80020E4E70120E2E704
:1029480019B1C0F894120020704702207047D0F8DF
:102958009032C3F80812C3F8102200207047D0F84C
:102968009032C3F8041200207047D0F890229AB130
:1029780008B5037C3BB14023D2F80422012101F0C1
:1029880020F8002008BD4FF40073D2F8042201217A
:1029980001F017F80020F5E70220704798B108B554
:1029A8000346D0F88C0210B10020C3F88C0209B19C
:1029B800C3F888121846012380F87432027000F0B8
:1029C8006BFF002008BD0220704719B1C0F88C12B7
:1029D800002070470220704708B500F0B7FF0020BC
:1029E80008BD08B5D0F88C3233B11B68984708B9D0
:1029F800002008BD0220FCE70220FAE708B5D0F85D
:102A08008C325B689847002008BD38B5044600F54D
:102A18002075284600F045F90123C4F86C32B4F853
:102A28008632C4F8703294F8801201F01F03012B2B
:102A38000ED03BB1022B10D001F08001204600F0EF
:102A4800A0FF03E02946204600F0B5FA002038BD73
:102A58002946204600F0E3FAF8E72946204600F028
:102A68000EFBF3E738B50446A1BB1046D4F86C3228
:102A7800032B03D0052B24D0002037E0D4F84C31A9
:102A8800D4F8502193420DD99B1AC4F84C319A427C
:102A980006D99AB20146204600F036FC002025E00F
:102AA80092B2F7E7D4F88C321B692BB194F87422F0
:102AB800032A01D120469847204600F02DFC00202B
:102AC80014E00025C4F86C522946204600F059FF4E
:102AD80028460BE00A46D0F88C329B693BB190F847
:102AE8007412032905D111469847002038BD0220E9
:102AF800FCE70220FAE710B50446002953D1104636
:102B0800D4F86C32022B0CD0042B00D01BB98021D6
:102B1800204600F036FF94F87832012B3FD0002091
:102B28004DE0236A626A93421DD8E169B1FBF2F372
:102B380002FB13132BB98A4203D8D4F87032994296
:102B48001FD3D4F88C32DB682BB194F87422032A93
:102B580001D1204698478021204600F012FF2046E8
:102B680000F0E5FBD7E79A1A226292B201462046A6
:102B780000F0B3FB00231A461946204600F021FF57
:102B8800C9E700221146204600F0A7FB0021C4F83F
:102B980070120B460A46204600F013FFBBE70020E0
:102BA80084F878020BE00A46D0F88C325B693BB1B6
:102BB80090F87412032905D111469847002010BDDA
:102BC8000220FCE70220FAE770B504464023002201
:102BD800114600F0C3FE0125C4F844514026C4F84C
:102BE8005061334600228021204600F0B7FEA561DF
:102BF800666284F874520023C4F86C326360C4F8C7
:102C08007C32D4F890322BB1D4F88C325B68002136
:102C180020469847002070BD01740020704790F846
:102C2800743280F87532042380F8743200207047BB
:102C380090F8753280F874320020704708B590F823
:102C48007432032B01D0002008BDD0F88C32DB6928
:102C5800002BF8D09847F6E700207047002070470F
:102C68000020704708B5012280F87422D0F88C2221
:102C7800526801799047002008BD002302E0013323
:102C8800DBB201300278002AF9D11846704708B53E
:102C98004B88012B00D008BDC0F87C3200F03CFB0B
:102CA800F9E70B7803704B7843708B78CA7803EB9D
:102CB800022343800B794A7903EB022383808B79C3
:102CC800CA7903EB0223C380704710B504468021FC
:102CD80000F057FE0021204600F053FE10BD30B52D
:102CE80083B005460C464A88130A013B062B00F2BE
:102CF8008480DFE803F004162A8282667300D0F825
:102D080088321B680DF10601007C9847BDF8062043
:102D180012B1E388002B74D1E388002B7BD003B079
:102D280030BD037C43B9D0F88C329B6A0DF10600A4
:102D3800984702234370E9E7D0F88C32DB6A0DF13B
:102D48000600984702234370E0E7D2B2052A34D838
:102D5800DFE802F0030B131B232BD0F888325B68E3
:102D68000DF10601007C9847D0E7D0F888329B68BF
:102D78000DF10601007C9847C8E7D0F88832DB6877
:102D88000DF10601007C9847C0E7D0F888321B692E
:102D98000DF10601007C9847B8E7D0F888325B69E6
:102DA8000DF10601007C9847B0E7D0F888329B699E
:102DB8000DF10601007C9847A8E72146FFF785FF3B
:102DC800ADE7037C33B9D0F88C325B6B0DF10600AC
:102DD80098479BE72146FFF778FFA0E7037C43B9B4
:102DE800D0F88C321B6B0DF106009847072343700F
:102DF8008CE72146FFF769FF91E72146FFF765FF5A
:102E08008DE79A4228BF1A46ADF8062001462846A3
:102E180000F056FA80E7284600F07EFA7FE738B5DA
:102E280004468B88F3B9CB88E3B94B887F2B19D834
:102E380003F07F0590F87432032B0CD080F876529B
:102E4800294600F0AEFD204600F066FA35B10223AF
:102E580084F8743209E0FFF738FF06E0012384F8AC
:102E6800743202E02046FFF730FF38BD38B504461B
:102E78000D468978284B197001290ED890F87432BC
:102E8800022B0ED0032B21D02946FFF71EFF224B21
:102E980019782046FFF7B2FD02E02946FFF715FF33
:102EA80038BD81B14160032380F87432FFF799FD82
:102EB800022803D0204600F02FFAF1E729462046E1
:102EC800FFF703FFECE700F027FAE9E789B1436869
:102ED80099421DD0D9B2FFF791FD0F4B1978616067
:102EE8002046FFF77EFD02280DD0204600F014FA98
:102EF800D6E7022380F874324160FFF77FFD204651
:102F080000F00AFACCE729462046FFF7DEFEC7E7BD
:102F180000F002FAC4E700BFFC01002008B5CB8826
:102F2800012B0BD190F874329BB1022B09D9032BDA
:102F38000FD10122011D00F0C3F901E0FFF7C5FE22
:102F480008BD0146002341F8083F012200F0B8F906
:102F5800F6E7FFF7BAFEF3E708B590F87432013BDD
:102F6800022B12D8CB88022B0CD10123C360D0F8D6
:102F78007C320BB10323C360022200F10C0100F084
:102F88009FF908BDFFF7A1FEFBE7FFF79EFEF8E7F4
:102F980008B590F87432013B022B09D84B88012BF5
:102FA80000D008BD0023C0F87C3200F0B5F9F8E77E
:102FB800FFF78BFEF5E708B50B7803F06003202BCD
:102FC80005D0402B03D043B1FFF77FFE03E0D0F8D4
:102FD8008C329B689847002008BD4B78092B1BD87A
:102FE800DFE803F011171A141A08051A0E0BFFF779
:102FF80076FEF0E7FFF713FFEDE7FFF737FFEAE7A5
:10300800FFF78CFFE7E7FFF7A7FFE4E7FFF73FFECF
:10301800E1E7FFF7BDFFDEE7FFF757FEDBE738B56F
:1030280005460C460B7803F06003202B06D0402B96
:1030380004D01BB1FFF749FE002038BD95F8743263
:10304800013B022B16D82379012B0ED8D5F88C32E8
:103058009B68214628469847E388002BECD1002836
:10306800EAD1284600F058F9E6E721462846FFF756
:103078002CFEE1E721462846FFF727FEDCE738B5B6
:1030880004468A880B7803F06003202B08D0D0B25E
:10309800402B05D05BB12046FFF717FE002005E066
:1030A800D4F88C329B6820469847002038BD202BE6
:1030B80005D1D4F88C329B6820469847F6E74B78C0
:1030C800012B32D0002B5ED0032B40F0D68094F831
:1030D8007432022B06D0032B16D02046FFF7F5FDDD
:1030E8000020E3E708B1802804D12046FFF7EDFD72
:1030F8000020DBE70146204600F043FC8021204603
:1031080000F03FFC0020D1E74B8823B918B1802894
:1031180001D0CB8823B1204600F0FEF80020C5E797
:103128000146204600F02DFCF5E794F87432022B96
:1031380006D0032B16D02046FFF7C7FD0020B5E7C1
:1031480008B1802804D12046FFF7BFFD0020ADE775
:103158000146204600F015FC8021204600F011FCB5
:103168000020A3E74B88002B40F08C8010F07F0FE5
:1031780004D1204600F0D0F8002097E70146204609
:1031880000F007FCF5E794F87432022B06D0032B05
:1031980029D02046FFF799FD002087E708B180284D
:1031A80012D112F0800F14D100F07F0000EB8000E4
:1031B800830003F5A073E11800250D600222204664
:1031C80000F07EF8284671E72046FFF77EFD0020D4
:1031D8006CE700F07F0000EB8000830003F1100132
:1031E80021440431E8E752B2002A1EDB00F00F0345
:1031F80003EB83039D002544D5F844311BB3002A13
:1032080026DB00F07F0202EB8202930003F5A07335
:10321800E51808B1802825D100232B600222294611
:10322800204600F04DF8002040E700F00F0303EBC4
:1032380083039D002544AB69002BE0D12046FFF7AE
:1032480044FD002032E72046FFF73FFD00202DE730
:1032580000F07F0202EB8202930003F1100525447F
:103268000435D6E70146204600F04AFB10B1012399
:103278002B60D3E700232B60D0E72046FFF725FD1E
:10328800002013E7002011E7C8B170B50D461646B7
:103298000446FFF7F2FC0130400030802870032319
:1032A8006B70022307E001345A1CD2B2E95402338E
:1032B800DBB20021A95421780029F4D170BD7047F0
:1032C80010B513460222C0F86C22C36103620A4695
:1032D800002100F06EFB002010BD08B513460A4619
:1032E800002100F066FB002008BD10B5134603223C
:1032F800C0F86C22C0F84831C0F84C310A460021A9
:1033080000F05FFB002010BD08B513460A460021F7
:1033180000F057FB002008BD08B50423C0F86C3244
:1033280000231A46194600F044FB002008BD08B5E2
:103338000523C0F86C3200231A46194600F041FBF9
:10334800002008BDF0B58BB00024059406940794BE
:10335800089409940194284B1A6B42F080021A636E
:103368001A6B02F080020192019A02941A6B42F0E1
:1033780004021A631A6B02F004020292029A03947E
:103388001A6B42F001021A631A6B02F001020392EF
:10339800039A04941A6B42F008021A631B6B03F039
:1033A80008030493049B154F012211463846FDF784
:1033B80036FA134E22464FF470413046FDF72FFA85
:1033C8000125059506950794089405A93846FDF743
:1033D8004DF905950694079405A90A48FDF746F99D
:1033E8004FF47043059306950794089405A9304651
:1033F800FDF73CF90BB0F0BD003802400008024070
:10340800000C02400000024008B50848084B036061
:1034180042F20F7343600023836040F26712C26078
:1034280003618361FEF7B8FB08BD00BF18020020E6
:103438000044014008B50268144B9A4200D008BD08
:1034480001211348FDF7E4F9012815D1114A136841
:1034580001331360032B08D8002BF0D001224FF45E
:1034680000410D48FDF7DBF9E9E701224FF470410F
:103478000948FDF7D4F9E2E700224FF47041064805
:10348800FDF7CDF9034B00221A60D8E7004401404C
:103498000000024000020020000C024030B595B048
:1034A8003022002108A800F08BFB00240394049428
:1034B80005940694079401941B4B1A6C42F08052B1
:1034C8001A641B6C03F080530193019B0294174B01
:1034D8001A6842F440421A601B6803F4404302939E
:1034E800029B012308934FF48033099302250E951C
:1034F8004FF480030F9304231093482311931295DC
:103508000323139308A8FDF73DFF0F2303930495A6
:1035180005944FF4805306930793294603A8FEF7B2
:1035280069F915B030BD00BF003802400070004096
:1035380008B5FCF7F1FFFFF7B1FFFFF703FF00F055
:10354800ADF8FFF761FF0348FEF706FAFFF7A8F8A2
:10355800FCE700BF180200207047000000B583B0E8
:10356800002100910C4B5A6C42F480425A645A6C08
:1035780002F480420092009A01911A6C42F0805243
:103588001A641B6C03F080530193019B0720FDF71D
:1035980003F803B05DF804FB0038024002680E4BE4
:1035A8009A4200D0704700B583B00021019103F51D
:1035B80074435A6C42F400325A645B6C03F400336F
:1035C8000193019B0A461920FCF7F8FF1920FDF723
:1035D80029F803B05DF804FB004401407047FEE79A
:1035E800FEE7FEE7FEE770477047704708B5FCF74F
:1035F800ADFF08BD08B50248FEF7C3F908BD00BF16
:103608001802002008B50248FDF7DEFA08BD00BF21
:10361800F414002008B503460B4A126842B10A4A5E
:10362800106803446A46934206D8074A136008BDE7
:10363800054A06491160F2E700F088FA0C23036096
:103648004FF0FF30F3E700BF04020020001B00200A
:103658000F49D1F8883043F47003C1F888300D4B16
:103668001A6842F001021A60002098601A6822F075
:10367800847222F480321A60074A5A601A6822F467
:1036880080221A60D8604FF000638B60704700BFDB
:1036980000ED00E0003802401030002408B5002298
:1036A8000F491048FFF77AF970B90F490D48FFF72D
:1036B8008CF960B90D490B48FFF742F950B9094830
:1036C800FFF78AF948B908BDFFF746FFEDE7FFF7AE
:1036D80043FFEFE7FFF740FFF1E7FFF73DFFF2E7B2
:1036E8006001002058020020E00000201C0100209A
:1036F800002070470020704710B5054C0146204651
:10370800FFF72DF92046FFF730F9002010BD00BF64
:103718005802002010B5064C002206492046FFF743
:1037280016F905492046FFF71AF9002010BD00BF19
:1037380058020020F40C0020F404002030B589B0B1
:103748000023039304930593069307930368B3F147
:10375800A04F01D009B030BD00250195164C236B50
:1037680043F001032363236B03F001030193019BDF
:103778004FF4C053039302230493032306930A23AD
:10378800079303A90D48FCF771FF636B43F08003AF
:1037980063630295636C43F480436364636C03F46E
:1037A80080430293029B2A4629464320FCF706FFE2
:1037B8004320FCF737FFCDE7003802400000024005
:1037C80008B500F57171D0F80404FFF71EF908BDBB
:1037D80008B5C1EBC10293000344D3F80822D0F81E
:1037E8000404FFF73FF908BD08B5C1EBC102930017
:1037F80003449A6CD0F80404FFF77DF908BD08B5B6
:10380800D0F80404FFF71AFA08BD10B50446C368D7
:10381800022B01D0FFF7A0FE0121D4F80404FFF722
:10382800FBF9D4F80404FFF7CFF910BD10B504462E
:10383800D0F80404FFF7F3F92268D2F8003E43F009
:103848000103C2F8003E236A23B1034A136943F017
:103858000603136110BD00BF00ED00E008B5D0F805
:103868000404FFF7E5F908BD08B5D0F80404FFF72C
:10387800F5F908BD08B5D0F80404FFF7EDF908BD5F
:1038880008B5D0F80404FFF7EBF908BD08B5D0F87F
:103898000404FFF7E7F908BD03780BB1002070476F
:1038A80010B503461548C0F80434C3F898024FF021
:1038B800A0430360042343600222C2600023036123
:1038C8008261C36103624362C3620363FDF717F851
:1038D80080B90A4C80212046FDF74FFD4022002187
:1038E8002046FDF726FD802201212046FDF721FD17
:1038F800002010BDFFF730FEEBE700BFF4140020F6
:10390800D0F8983211F0800F08D101F07F01C1EB97
:10391800C1018A00134493F8FE01704701F07F014A
:10392800C1EBC1018A00134493F83E00704708B503
:10393800D0F89802FDF752FC08BD18B1022803D050
:1039480002207047002070470120704708B5D0F862
:103958009802FDF765F8FFF7F0FF08BD10B51C46A3
:1039680013462246D0F89802FDF792FBFFF7E5FFD1
:1039780010BD08B5D0F89802FDF7CBFBFFF7DDFFC7
:1039880008BD08B5D0F89802FDF75BFCFFF7D5FF36
:1039980008BD08B5D0F89802FDF794FCFFF7CDFFF5
:1039A80008BD08B5D0F89802FDF75EFBFFF7C5FF24
:1039B80008BD08B5D0F89802FDF719FCFFF7BDFF60
:1039C80008BD08B5D0F89802FDF7DAFBFFF7B5FF98
:1039D80008BD000012230B80004870472C0100200E
:1039E80004230B80004870474001002000239342C5
:1039F80016D230B40BE0373401F8134000015C00F4
:103A0800013400250D550133DBB2934206D2040F71
:103A1800092CF0D8303401F81340EFE730BC704778
:103A28007047000038B50B4B186804331C68043322
:103A38001B68C01800D138BD074D082205F11A01CE
:103A4800FFF7D4FF042205F12A012046FFF7CEFF35
:103A5800F1E700BF107AFF1F2C01002008B51A23D8
:103A68000B80FFF7DFFF014808BD00BF44010020BD
:103A780008B50A4628B105490548FFF705FC03487B
:103A880008BD02490248FFF7FFFBF8E7FC180020D1
:103A98007C3D000810B5044C0A4621460348FFF750
:103AA800F3FB204610BD00BFFC180020943D000821
:103AB80008B50A4628B105490548FFF7E5FB03485C
:103AC80008BD02490248FFF7DFFBF8E7FC180020B1
:103AD800A83D000808B50A4628B105490548FFF77A
:103AE800D3FB034808BD02490248FFF7CDFBF8E7BE
:103AF800FC180020B43D0008DFF834D0002103E0B2
:103B08000C4B5B58435004310B480C4B42189A42FB
:103B1800F6D30B4A02E0002342F8043B094B9A42D1
:103B2800F9D3FFF795FD00F017F8FFF701FD70478F
:103B380000000220D43D000800000020E001002021
:103B4800E0010020001B0020FEE70000014B186880
:103B5800704700BF7C01002070B50D4E0D4CA41BB2
:103B6800A4100025A54209D10B4E0C4C00F0EAF830
:103B7800A41BA4100025A54205D170BD56F8253018
:103B880098470135EEE756F8253098470135F2E7B2
:103B9800CC3D0008CC3D0008CC3D0008D03D0008D5
:103BA800024B0146186800F061B800BF7C01002094
:103BB800024B0146186800F00BB800BF7C010020DA
:103BC80002440346934200D1704703F8011BF9E70A
:103BD80038B50546002945D051F8043C0C1F002B88
:103BE800B8BFE41800F0ACF81F4A1368104633B9A0
:103BF800636014602846BDE8384000F0A2B8A342CC
:103C08000CD921686218934204BF1A685B68636024
:103C180004BF521822600460ECE713465A680AB1E0
:103C2800A242FAD919685818A0420BD12068014459
:103C3800581882421960DDD1106852685A600144F0
:103C48001960D7E702D90C232B60D3E72068211825
:103C58008A4204BF11685268626004BF0918216073
:103C68005C60C7E738BD00BF0C02002070B5CD1CF2
:103C780025F0030508350C2D38BF0C25002D064608
:103C880001DBA94203D90C233360002070BD00F08A
:103C980057F8214A1468214691B9204C23681BB96A
:103CA800304600F03DF820602946304600F038F8EC
:103CB800431C24D10C233360304600F042F8E4E77B
:103CC8000B685B1B18D40B2B0FD90B60CD50CC188D
:103CD800304600F036F804F10B00231D20F00700F1
:103CE800C31AD3D05A42E250D0E78C424B6816BF71
:103CF800636013600C46EBE70C464968CCE7C41CCC
:103D080024F00304A04205D0211A304600F008F838
:103D18000130CFD02560DBE70C0200201002002024
:103D280038B5064C0023054608462360FFF772FCA9
:103D3800431C02D1236803B12B6038BDFC1A002054
:103D480070477047F8B500BFF8BC08BC9E4670477E
:0C3D5800F8B500BFF8BC08BC9E467047E0
:103D64000000000000000000010203040607080927
:103D7400000000000102030453544D3332205669FD
:103D8400727475616C20436F6D506F727400000023
:103D940053544D6963726F656C656374726F6E69B9
:103DA4006373000043444320436F6E6669670000F9
:103DB40043444320496E7465726661636500000084
:083DC40044C4FF7F0100000070
:043DCC00BD0100082D
:043DD000990100084D
:103DD400010000001000000009024300020100C0BD
:103DE400320904000001020201000524001001054B
:103DF40024010001042402020524060001070582AF
:103E04000308001009040100020A0000000705016C
:103E1400024000000705810240000000090243003F
:103E2400020100C03209040000010202010005245D
:103E340000100105240100010424020205240600E7
:103E4400010705820308001009040100020A0000AA
:103E540000070501020002000705810200020000BC
:103E640009074300020104C03209040000010202F0
:103E740001000524001001052401000104240202AC
:103E84000524060001070582030800100904010047
:103E9400020A000000070501024000000705810234
:103EA400400000000A06000200000040010000007B
:103EB4009F2800085D2800088327000800000000F0
:103EC400AB2600083327000805270008000000007F
:103ED4000000000000000000E1260008D5260008CC
:103EE400ED260008F92600080024F4001D37000818
:103EF400F9360008FD3600080137000812010002F7
:103F04000202004083044057000201020301000042
:103F1400040309041A03000000000000000000006C
:103F2400000000000000000000000000000000008D
:103F3400DD390008E93900089D3A0008793A00089B
:103F4400653A0008B93A0008DD3A0008800100200B
:103F5400000000000000000000000000000000005D
:103F6400000000000000000000000000000000004D
:103F7400000000000000000000000000000000003D
:103F8400000000000000000000000000000000002D
:103F9400000000000000000000000000000000001D
:103FA400000000000000000000000000000000000D
:0400000508003B01B3
:00000001FF
