:020000040800F2
:10000000000002200D410008C53B0008C73B000866
:10001000C93B0008CB3B0008CD3B000800000000B6
:10002000000000000000000000000000CF3B0008BE
:10003000D13B000800000000D33B0008D53B00087E
:100040005D4100085D4100085D4100085D41000818
:100050005D4100085D4100085D4100085D41000808
:100060005D4100085D4100085D4100085D410008F8
:100070005D4100085D4100085D4100085D410008E8
:100080005D4100085D4100085D410008000000007E
:100090000000000000000000000000005D410008BA
:1000A0005D410008DD3B00085D4100085D4100083E
:1000B0005D4100085D4100085D4100085D410008A8
:1000C0005D4100085D4100085D4100085D41000898
:1000D0005D4100085D4100085D410008000000002E
:1000E0005D4100085D4100085D410008000000001E
:1000F0000000000000000000000000005D4100085A
:10010000000000005D4100085D4100085D410008FD
:1001100000000000000000000000000000000000DF
:100120005D4100085D4100085D4100085D41000837
:100130005D41000800000000000000000000000019
:10014000000000000000000000000000ED3B00087F
:100150005D4100085D4100085D4100085D41000807
:100160005D4100085D410008000000000000000043
:10017000000000000000000000000000000000007F
:10018000000000005D4100080000000000000000C9
:080190005D4100085D4100081B
:1001980010B5054C237833B9044B13B10448AFF3B9
:1001A80000800123237010BD4802002000000000D9
:1001B8005843000808B5034B1BB103490348AFF384
:1001C800008008BD000000004C02002058430008D1
:1001D80053B94AB9002908BF00281CBF4FF0FF31A6
:1001E8004FF0FF3000F072B9ADF1080C6DE904CEA4
:1001F80000F006F8DDF804E0DDE9022304B07047FA
:100208002DE9F047089E04468846002B4BD18A42C8
:10021800154667D9B2FA82F24AB1C2F1200701FA4B
:1002280002F320FA07F7954047EA030894404FEA9B
:10023800154E230CB8FBFEF71FFA85FC0EFB17883A
:1002480043EA084307FB0CF1994209D9EB1807F177
:10025800FF3080F01B81994240F21881023F2B4405
:100268005B1AA4B2B3FBFEF00EFB103344EA03445E
:1002780000FB0CFCA44509D92C1900F1FF3380F0D0
:100288000781A44540F2048102382C4440EA074023
:10029800A4EB0C0400271EB1D4400023C6E9004398
:1002A8003946BDE8F0878B4209D9002E00F0EB8073
:1002B8000027C6E9000138463946BDE8F087B3FA99
:1002C80083F7002F47D18B4202D3824200F2FA8093
:1002D800841A61EB030301209846002EE0D0C6E99A
:1002E8000048DDE702B9FFDEB2FA82F2002A40F0E8
:1002F8008F80491B4FEA154E1FFA85F80127B1FB7D
:10030800FEFC230C0EFB1C1143EA014308FB0CF115
:10031800994207D9EB180CF1FF3002D2994200F24A
:10032800CD808446591AA3B2B1FBFEF00EFB10141F
:1003380043EA044408FB00F8A04507D92C1900F14A
:10034800FF3302D2A04500F2B6801846A4EB080499
:1003580040EA0C409FE7C7F1200CBB4022FA0CFE94
:100368004EEA030E01FA07F420FA0CF521FA0CF311
:100378004FEA1E482543B3FBF8F92C0C08FB193348
:100388001FFA8EFA44EA034309FB0AF49C4202FA74
:1003980007F200FA07F10BD91EEB030309F1FF304E
:1003A80080F087809C4240F28480A9F1020973445E
:1003B8001B1BADB2B3FBF8F008FB103345EA03444E
:1003C80000FB0AFAA24508D91EEB040400F1FF332A
:1003D8006BD2A24569D90238744440EA0940A0FBAF
:1003E8000289A4EB0A044C45C2464B4654D351D06B
:1003F800002E69D0B1EB0A0564EB030404FA0CFC87
:10040800FD40FC404CEA0505C6E90054002747E7D3
:10041800C2F1200320FA03F7954001FA02F021FA0D
:1004280003F34FEA154E3843010CB3FBFEF71FFAEE
:1004380085F80EFB173341EA034107FB08F38B42AB
:1004480004FA02F407D9691807F1FF3C2FD28B424E
:100458002DD9023F2944CB1A81B2B3FBFEF00EFB23
:10046800103341EA034100FB08F38B4207D96918AE
:1004780000F1FF3C17D28B4215D902382944C91A1A
:1004880040EA07473BE73746304609E70746E7E6CD
:100498001846FBE64145ABD2B8EB020A69EB0E02FF
:1004A80001381346A4E76046E9E7184695E767462A
:1004B800D1E781467CE702382C4447E7ACF1020CCF
:1004C8002B442FE7384608E73746E9E6704700BF70
:1004D80010F8012B11F8013B012A28BF9A42F7D0E6
:1004E800D01A7047034613F8012B002AFBD1181ABB
:1004F8000138704710B504460E4B18784FF47A73DC
:10050800B3FBF0F30C4A1068B0FBF3F000F0AAF864
:1005180068B90F2C01D901200AE0002221464FF0CA
:10052800FF3000F05DF8034B5C60002000E0012024
:1005380010BD00BF000000208001002008B50B4B53
:100548001A6842F400721A601A6842F480621A60EB
:100558001A6842F480721A60032000F02FF8002015
:10056800FFF7C8FF03F0EAFA002008BD003C02408C
:10057800034A1168034B1B780B441360704700BF94
:100588009402002000000020014B1868704700BF4B
:100598009402002038B50446FFF7F6FF0546B4F18B
:1005A800FF3F02D0044B1B781C44FFF7EDFF401BB4
:1005B800A042FAD338BD00BF00000020074AD36824
:1005C80023F4E0631B041B0C000200F4E0601843F2
:1005D80040F0BF6040F40030D060704700ED00E0AC
:1005E80030B4174BDB68C3F30223C3F10704042CB0
:1005F80028BF04241D1D062D18D9033B4FF0FF35D5
:1006080005FA04F421EA0401994005FA03F322EA01
:100618000303194300280BDB0901C9B200F160404C
:1006280000F5614080F8001330BC70470023E5E70F
:1006380000F00F000901C9B2024B1954F4E700BFDA
:1006480000ED00E014ED00E0002807DB00F01F02D9
:10065800400901239340024A42F82030704700BF06
:1006680000E100E00138B0F1807F0AD2064B586003
:10067800064AF02182F823100020986007221A60A9
:1006880070470120704700BF10E000E000ED00E077
:1006980000230F2B00F2C580F0B482B039E00422A9
:1006A80000E00022B2403A4302345E4E46F824206D
:1006B8005D4A1468EA4302EA04064F6817F4803F6B
:1006C80001D045EA0406584C2660646802EA04062C
:1006D8004F6817F4003F01D045EA0406524C6660A3
:1006E800A46802EA04064F6817F4801F01D045EA9F
:1006F80004064D4CA660E46822404E6816F4001FBC
:1007080001D045EA0402484CE26001330F2B00F2A5
:10071800858001229A400C6804EA0205AA42F4D1B5
:100728004C68022C01D0122C10D1DE08083650F883
:1007380026C003F00704A7000F24BC402CEA040CD1
:100748000C69BC4044EA0C0440F8264004685F0089
:100758000326BE40F64306EA040C4C6804F0030482
:10076800BC4044EA0C0404604C6804F1FF3CBCF152
:10077800010F03D9112C01D0122C10D1846806EA7C
:10078800040CCC68BC4044EA0C048460446824EA45
:1007980002024C68C4F300149C4014434460C268CD
:1007A80016408A68BA403243C2604A6812F0805FD5
:1007B800ABD0002201921D4A546C44F48044546426
:1007C800526C02F480420192019A9C08A61C154AB8
:1007D80052F8267003F0030296000F22B24027EA6F
:1007E8000207134A90423FF45CAF02F580629042E0
:1007F8000ED002F5806290420CD002F580629042E1
:100808000AD002F5806290423FF449AF072249E7D7
:10081800012247E7022245E7032243E702B0F0BC82
:100828007047704700380140003C014000380240E2
:10083800000002400369194201D1002070470120DD
:10084800704712B9090481617047816170472DE9C9
:10085800F04782B00768CA00521A930003445A6DE1
:100868001B6D9A4257D8B8469B1AC1EBC104A20027
:100878000244526C9A4200D31A460C46064602F1CC
:10088800030A4FEA9A0A16E009F1030A4FEA9A0A9C
:10089800E3001B1B9D003544A96C337C00931FFAB1
:1008A80089F3E2B2384601F0D3FCAB6C4B44AB643D
:1008B8006B6D4B446B6508EB441303F510639B6940
:1008C8009BB2534513D3E3001B1B9A003244516D6E
:1008D800136D99420BD253B15B1AC4EBC4018A0061
:1008E8003244D2F844909945CED39946CCE7E300F8
:1008F8001B1B98000644326D736D9A420FD804F0A2
:100908000F040121A140D7F8344824EA0104C7F8AC
:100918003448002000E0012002B0BDE8F087002044
:10092800FAE7F0B58BB0002800F08A800446056825
:1009380090F8BD3323B3032384F8BD33EB6B13F472
:10094800807F01D100232361206801F033FA254616
:1009580055F8107B6E460FCD0FC60FCD0FC695E824
:10096800030086E80300231D0ECB384601F060F92A
:1009780058B1022384F8BD33012528460BB0F0BDD9
:1009880080F8BC3303F0E0F9D5E70021206801F0D6
:1009980017FA002315E0D900C81A82002244012062
:1009A80082F83D0082F83C30A2F84230002082F8FC
:1009B8003F0050649064CA1A9100214408650133CD
:1009C800DBB26568AB42E6D3002315E0D800C11A54
:1009D8008A002244002182F8FD1182F8FC3182F855
:1009E800FF11C2F80412C2F80812C21A900020447B
:1009F800C0F810120133DBB29D42E7D8254655F8FE
:100A0800107B6E460FCD0FC60FCD0FC695E80300BD
:100A180086E80300231D0ECB384601F017FA054679
:100A280020B1022384F8BD330125A6E7002384F80A
:100A38003830012384F8BD33206801F0B6FD9CE707
:100A480001259AE7026890F8BC33012B19D010B53C
:100A5800012380F8BC33836A012B0AD0044600685E
:100A680001F097FD206801F09FF9002084F8BC038D
:100A780010BD8369012BF1D0936B43F480339363EA
:100A8800ECE702207047000070B505460E46036883
:100A9800196C03EB461303F53064A3680269012A55
:100AA8000FD0354A914261D113F4004F5AD113F057
:100AB800200F01D02023A360F1B2284603F08EF95D
:100AC80057E013F0080F14D02C4A914205D913F4BB
:100AD800004F02D04FF40043A360284603F076F994
:100AE80005F571720121286801F0BCFD0823A36097
:100AF8003FE013F0200F2ED113F0280F39D11F4AF1
:100B0800914202D913F4004F28D1F200921B9300AE
:100B18002B44D3F804222169C1F31201521AC3F8F5
:100B28001422D3F80412D3F808220A44C3F808227E
:100B3800F1B2284603F052F9DEB9C6EBC606B30097
:100B48002B44D3F81032A3B905F571720121286836
:100B580001F088FD0DE02023A3600AE04FF4004374
:100B6800A36006E04FF40043A36002E0F1B203F093
:100B780035F9002070BD00BF0A31544F0A30544F78
:100B880038B5044603681D6C03EB411101F530616B
:100B98008A680369012B0DD0124B9D4214D0204660
:100BA80003F014F9104B9D4202D92369012B12D08E
:100BB800002038BD0C4B9D42F1D912F4004FEED005
:100BC8004FF400438B60EAE712F4004FE7D04FF48C
:100BD80000438B60E3E704F571720121206801F09E
:100BE80041FDE5E70A31544F0A30544F2DE9F84FDB
:100BF80004460568284601F015FD08B1BDE8F88FE0
:100C08002F460646206801F0DCFC0028F6D0206854
:100C180001F0D7FC10F0020F04D02268536903F0EA
:100C280002035361206801F0CCFC10F4002F74D14A
:100C3800206801F0C6FC10F4802F40F0C2802068C4
:100C480001F0BFFC0028C0F23481206801F0B9FC33
:100C580010F4006F0AD0D5F8083813F0010F40F0EF
:100C680042812268536903F400635361206801F0EC
:100C7800A8FC10F4805F40F03A81206801F0A1FCE4
:100C880010F4005F40F08D81206801F09AFC10F0AC
:100C9800100F14D02268936923F0100393612E6A11
:100CA80006F00F07C6F34343022B00F09281062B90
:100CB80000F0B0812268936943F0100393612068C3
:100CC80001F07FFC10F0080F40F0B681206801F0B9
:100CD80078FC10F4801F40F0B881206801F071FCA6
:100CE80010F4001F40F0BB81206801F06AFC10F08E
:100CF800804F40F0BE81206801F063FC10F0040FC3
:100D08003FF47CAF23685D6815F0040F40F0BA81AA
:100D1800226853682B43536070E7206801F055FC44
:100D28008046B14625E007EB49130122C3F8082B9A
:100D380049462046FFF7A8FE2BE049462046FFF724
:100D48001FFF07EB49130822C3F8082B24E007EB21
:100D580049132022C3F8082B1AF4005F05D007EBCB
:100D680049134FF40052C3F8082B09F101094FEA5F
:100D78005808B8F1000F3FF45BAF18F0010FF4D03A
:100D88005FFA89F1206801F030FC824610F0010F0B
:100D9800C9D11AF0080FD0D11AF0100F04D007EB00
:100DA80049131022C3F8082B1AF0200FD4D0236956
:100DB800012BCCD104F571720121206801F052FC9D
:100DC800C5E7206801F009FC8046B14631E04FEAEA
:100DD800C902A2EB090293002344596C9A6C0A4495
:100DE8009A6449E01AF0080F04D007EB4913082267
:100DF800C3F808291AF0100F04D007EB4913102282
:100E0800C3F808291AF0400F04D007EB4913402211
:100E1800C3F808291AF0020F04D007EB491302227D
:100E2800C3F808291AF0800F3ED109F101094FEAE9
:100E38005808B8F1000F3FF402AF18F0010FF4D0D2
:100E48005FFA89FB5946206801F0D8FB824610F00A
:100E5800010FC7D009F00F03012101FA03F2D7F8F7
:100E6800343823EA0203C7F8343807EB4913C3F8C8
:100E7800081923698B42AAD05946204602F0BAFFC6
:100E88002369012BAED1B9F1000FABD1C9EBC9026F
:100E9800930023441B6D002BA4D104F5717201212A
:100EA800206801F0DFFB9DE749462046FFF7CFFCAD
:100EB800BBE7D5F8043823F00103C5F8043894F8E3
:100EC800F433012B08D0204602F0CEFF2268536984
:100ED80003F000435361B8E6002184F8F413204678
:100EE80000F061FAF2E7204602F0A6FFB9E605F540
:100EF8000068D8F8043023F00103C8F80430102142
:100F0800206800F075FF14E007EB46134FF67F31B9
:100F1800C3F80819D3F8002922F40012C3F80029ED
:100F2800C3F8081BD3F8002B22F40012C3F8002BD7
:100F380001366368B342E7D8D8F81C3043F0011390
:100F4800C8F81C30236BEBB1D8F8843043F00B039E
:100F5800C8F88430D8F8443043F00B03C8F844305C
:100F6800D5F8003823F4FE63C5F8003804F571722B
:100F7800217C206801F076FB2268536903F48053D2
:100F880053617AE6D8F8143043F4005343F02B0346
:100F9800C8F81430D8F8103043F00B03C8F81030F4
:100FA800DEE7206801F042FB206801F01FF8E060EE
:100FB800266800F0DDFC227B0146304600F07EFE0C
:100FC800204602F028FF2268536903F40053536156
:100FD8005AE647F6F0731E423FF46CAE4FEAC70973
:100FE800A9EB07034FEA8308A0443609C6F30A02AF
:100FF800D8F80812284601F04DFAC6F30A06D8F8C0
:1010080008323344C8F80832D8F814321E44C8F8F5
:1010180014624FE6082204F57171284601F03AFA85
:10102800C6F30A16FB00D91B8A002244D2F81432F0
:101038001E44C2F814623DE6204602F0E6FE22682D
:10104800536903F00803536140E60021204602F08B
:1010580017FF2268536903F4801353613DE60021AA
:10106800204602F007FF2268536903F40013536116
:101078003AE6204602F00AFF2268536903F08043EB
:10108800536138E6204602F007FF41E690F8BC338A
:10109800012B0DD010B50446012380F8BC3380F82D
:1010A8003810006801F065FA002084F8BC0310BD10
:1010B80002207047F8B511F0800F28D101F00F0613
:1010C800F500AF1BBC00274604F5FC740444043447
:1010D8003E460644002586F8FD5101F00F012170B7
:1010E800A260E370627802B1E180022B1ED090F812
:1010F800BC33012B1DD00546012380F8BC332146A3
:10110800006800F084FF002085F8BC03F8BD01F0FA
:101118000F06F500AF1BBC002746383404440434DE
:101128003E460644012586F83D50D6E70023237144
:10113800DDE70220EAE738B511F0800F21D101F090
:101148000F05EA00541BA3001C4603F5FC73034477
:10115800043325460544002285F8FD2101F00F01DE
:10116800197090F8BC23012A1AD00446012280F88D
:10117800BC231946006800F095FF002084F8BC03E2
:1011880038BD01F00F04E200151BAB001D463833D3
:10119800034404332C460444012284F83D20DDE74F
:1011A8000220EDE770B501F00F05EE00711B8C0011
:1011B80004F5FC740444211D761BB4000444C4F8EF
:1011C8000822C4F810320023C4F8143284F8FD3120
:1011D80084F8FC510369012B06D065B1DAB20068C6
:1011E80001F04AF8002070BDC5EBC506B400044400
:1011F800C4F80C22F1E7DAB2006800F09BFFF1E7CF
:1012080001F00F01C1EBC1018B001844D0F81402A2
:10121800704770B501F00F05EE00711B8C00383473
:101228000444211D761BB4000444A26423650023F2
:101238006365012384F83D3084F83C500369012B31
:1012480006D05DB1DAB2006801F016F8002070BD72
:10125800C5EBC506B4000444E264F2E7DAB20068FC
:1012680000F068FFF2E738B501F00F0543689D42CA
:1012780036D811F0800F20D1CA00541AA3001C469A
:1012880003F5FC730344043322460244002182F828
:10129800FD1101229A701D7090F8BC23012A21D0FB
:1012A8000446012280F8BC231946006801F006F9BB
:1012B8007DB1002084F8BC0313E0EA00511B8B00C9
:1012C80019463833034404330144012281F83D2090
:1012D800DFE704F57172217C206801F0C3F9E8E7C3
:1012E800012038BD0220FCE710B501F00F04436867
:1012F8009C422CD811F0800F1DD1E3001A1B9100DD
:101308000A4601F5FC71014404310244002382F8C5
:10131800FD3100238B700C7090F8BC33012B18D072
:101328000446012380F8BC33006801F0F4F800207B
:1013380084F8BC030CE0E3001A1B91000A4638311C
:10134800014404310244012382F83D30E1E70120E1
:1013580010BD0220FCE730B40468606A29B10D466C
:10136800A36A00EB134000230CE040EA0240A062AD
:1013780012E003F1400104EB8101496800EB1140E0
:101388000133DBB2691E8B42F3D340EA024005F118
:101398003F0104EB81014860002030BC70470368BE
:1013A8005962002070477047002800F0BB8170B573
:1013B80082B00446036813F0010F3BD0A74B9B682B
:1013C80003F00C03042B2CD0A44B9B6803F00C03F4
:1013D800082B21D06368B3F5803F4FD0B3F5A02F19
:1013E80052D09E4B1A6822F480321A601A6822F48E
:1013F80080221A606368002B50D0FFF7C5F80546B5
:10140800964B1B6813F4003F14D1FFF7BDF8401B3F
:101418006428F5D903208AE1904B5B6813F4800FA8
:10142800D8D08E4B1B6813F4003F03D06368002BA1
:1014380000F07A81236813F0020F55D0874B9B6820
:1014480013F00C0F3ED0854B9B6803F00C03082B60
:1014580033D0E368002B68D0814B01221A60FFF774
:1014680093F805467D4B1B6813F0020F54D1FFF724
:101478008BF8401B0228F5D9032058E1774A1368F6
:1014880043F480331360B5E7744B1A6842F4802242
:101498001A601A6842F480321A60ABE7FFF774F8F2
:1014A80005466E4B1B6813F4003FC3D0FFF76CF87A
:1014B800401B6428F5D9032039E1684B5B6813F4B5
:1014C800800FC6D1654B1B6813F0020F04D0E36888
:1014D800012B01D001202AE1604A136823F0F803A8
:1014E800216943EAC1031360236813F0080F40D051
:1014F800636963B35B4B01221A60FFF745F8054641
:10150800564B5B6F13F0020F33D1FFF73DF8401BCA
:101518000228F5D903200AE1504A136823F0F8039A
:10152800216943EAC1031360DEE74D4B00221A60CC
:10153800FFF72AF80546494B1B6813F0020FD3D072
:10154800FFF722F8401B0228F5D90320EFE0454BAE
:1015580000221A60FFF718F80546404B5B6F13F03E
:10156800020F06D0FFF710F8401B0228F5D9032018
:10157800DDE0236813F0040F79D0384B1B6C13F0AF
:10158800805F33D100230193344B1A6C42F08052B0
:101598001A641B6C03F080530193019B0125324BA5
:1015A8001B6813F4807F23D0A368012B34D0052B4C
:1015B80038D02A4B1A6F22F001021A671A6F22F0EC
:1015C80004021A67A368002B36D0FEF7DDFF064633
:1015D800224B1B6F13F0020F48D1FEF7D5FF801B7B
:1015E80041F288339842F3D90320A0E00025D6E7DA
:1015F8001D4A136843F480731360FEF7C5FF06465F
:10160800194B1B6813F4807FCED1FEF7BDFF801BFA
:101618000228F5D903208AE0104A136F43F001032A
:101628001367CFE70D4B1A6F42F004021A671A6F5F
:1016380042F001021A67C5E7FEF7A6FF0646074B08
:101648001B6F13F0020F11D0FEF79EFF801B41F2B3
:1016580088339842F3D9032069E000BF003802407C
:1016680000004742800E474200700040E5B9A36978
:10167800002B5BD0304A926802F00C02082A58D03E
:10168800022B17D02D4B00221A60FEF77DFF04466F
:10169800294B1B6813F0007F42D0FEF775FF001B33
:1016A8000228F5D9032042E0234A136C23F0805323
:1016B8001364DCE7214B00221A60FEF765FF05463C
:1016C8001D4B1B6813F0007F06D0FEF75DFF401B23
:1016D8000228F5D903202AE0E369226A1343626AE3
:1016E80043EA8213A26A5208013A43EA0243E26AD1
:1016F80043EA0263104A5360104B01221A60FEF756
:1017080043FF04460C4B1B6813F0007F06D1FEF71D
:101718003BFF001B0228F5D9032008E0002006E063
:10172800002004E001207047012000E0002002B002
:1017380070BD0120FBE700BF00380240600047424F
:10174800324B9B6803F00C03042B5CD0082B01D0B0
:101758002F4870472DE9F04B2C4B5A6802F03F0296
:101768005B6813F4800F2BD0284B5B68C3F3881396
:101778001E4600275C010025E41A65EB0705A90150
:1017880041EA9461A001001B61EB0501CB0043EA2B
:101798005073C400A01943EB07014B0243EAD0532E
:1017A8004402204619460023FEF712FD174B5B68DA
:1017B800C3F3014301335B00B0FBF3F0BDE8F08BEA
:1017C800124B5B68C3F388131E4600275C01002593
:1017D800E41A65EB0705A90141EA9461A001001B21
:1017E80061EB0501CB0043EA5073C400A01943EB39
:1017F80007018B0243EA90538402204619460023CE
:10180800FEF7E6FCD2E70348704700BF0038024005
:101818000024F40000127A00002800F09D8070B5C2
:1018280004464F4B1B6803F00F038B4209D2CBB21F
:101838004B4A1370136803F00F038B4201D0012049
:1018480070BD236813F0020F17D013F0040F04D0F3
:10185800444A936843F4E0539360236813F0080FF5
:1018680004D0404A936843F4604393603D4A9368C8
:1018780023F0F003A068034393600D46236813F038
:10188800010F32D06368012B21D09A1E012A25D975
:10189800344A126812F0020F60D032498A6822F086
:1018A800030213438B60FEF76FFE06462D4B9B68C1
:1018B80003F00C036268B3EB820F16D0FEF764FEE8
:1018C800801B41F288339842F0D90320B8E7254AB3
:1018D800126812F4003FE0D10120B1E7214A1268F2
:1018E80012F0007FD9D10120AAE71D4B1B6803F035
:1018F8000F03AB4209D9EAB2194B1A701B6803F0FF
:101908000F03AB4201D001209AE7236813F0040FBC
:1019180006D0144A936823F4E053E1680B439360BC
:10192800236813F0080F07D00E4A936823F4604326
:10193800216943EAC1039360FFF702FF094B9B68E3
:10194800C3F30313084AD35CD840084B186000203F
:10195800FEF7D0FD002073E70120704701206FE7F4
:10196800003C02400038024070430008800100201B
:10197800014B1868704700BF800100200268D368D7
:1019880043F00103D3600268936803F00703062B52
:1019980003D0136843F001031360002070477047B9
:1019A80070477047704710B5044603681A6912F00B
:1019B800020F11D0DA6812F0020F0DD06FF0020298
:1019C8001A610123037703689B6913F0030F70D032
:1019D800FFF7E6FF0023237723681A6912F0040F44
:1019E80012D0DA6812F0040F0ED06FF004021A61F8
:1019F8000223237723689B6913F4407F5FD0204636
:101A0800FFF7CEFF0023237723681A6912F0080F27
:101A180012D0DA6812F0080F0ED06FF008021A61BF
:101A2800042323772368DB6913F0030F4ED0204685
:101A3800FFF7B6FF0023237723681A6912F0100F07
:101A480012D0DA6812F0100F0ED06FF010021A617F
:101A5800082323772368DB6913F4407F3DD02046B1
:101A6800FFF79EFF0023237723681A6912F0010FFE
:101A780003D0DA6812F0010F36D123681A6912F020
:101A8800800F03D0DA6812F0800F34D123681A6906
:101A980012F0400F03D0DA6812F0400F32D12368F9
:101AA8001A6912F0200F03D0DA6812F0200F30D133
:101AB80010BDFFF774FF2046FFF773FF8AE7204643
:101AC800FFF76DFF2046FFF76CFF9BE72046FFF707
:101AD80066FF2046FFF765FFACE72046FFF75FFF8C
:101AE8002046FFF75EFFBDE76FF001021A6120464E
:101AF80001F05AFFC1E76FF080021A61204600F03A
:101B080077F8C3E76FF040021A612046FFF74AFFF3
:101B1800C5E76FF020021A61204600F068F8C7E7B1
:101B28000368254A90420ED0B0F1804F0BD0A2F541
:101B38007C42904207D002F58062904203D002F5C1
:101B48008062904203D123F070034A6813431A4A13
:101B580090421AD0B0F1804F17D0A2F57C42904243
:101B680013D002F5806290420FD002F58062904255
:101B78000BD002F59A32904207D002F5806290426B
:101B880003D002F58062904203D123F44073CA68FF
:101B9800134323F080034A69134303608B68C362CD
:101BA8000B688362044B984202D00123436170475B
:101BB8000B690363F9E700BF00000140A8B110B545
:101BC800044690F83D305BB1022384F83D30211D76
:101BD8002068FFF7A5FF012384F83D30002010BDE1
:101BE80080F83C3001F0CAFFEEE7012070477047EB
:101BF80070470000002301330C4A934211D8026950
:101C0800002AF8DA036943F0010303610023013372
:101C1800064A934207D8026912F0010FF7D1002053
:101C28007047032070470320704700BF400D030032
:101C380084B010B5044603A880E80E00089B012B69
:101C48001FD1A36B23F48033A363E36823F48403D5
:101C580023F04003E360E36823F44013E3600F9B41
:101C6800012B09D02046FFF7C5FF069B012B1BD08F
:101C7800BDE8104004B07047E36843F48013E360A4
:101C8800F0E7E36843F04003E3602046FFF7B2FF64
:101C98000C9B23B9A36B43F48033A363E5E7A36BE1
:101CA80023F48033A363E0E7A36843F00603A3604B
:101CB800A36843F02003A360DAE70000022A0AD0F1
:101CC8000921C26822F47052C260C36843EA8123C2
:101CD800C360002070472A4B0B442A4A93423FD9DD
:101CE800294B0B44294A93423CD9A1F57403A3F527
:101CF8001053274A934237D9A1F18373A3F5E743D9
:101D080002F5C332A032934230D9224B0B44224A07
:101D180093422DD9214B0B4402F5922202F5787299
:101D2800934227D91E4B0B4402F5C32202F52072B9
:101D3800934221D9A1F1B773A3F5585302F5B7120D
:101D480002F55872934219D9164B0B4402F5122228
:101D580002F5F862934201D90621B2E70721B0E7FC
:101D68000F21AEE70E21ACE70D21AAE70C21A8E769
:101D78000B21A6E70A21A4E70921A2E70821A0E789
:101D8800405327FFFF340C00401E1BFF3F420F004B
:101D98007F4F120060B6E5FE5FE3160000D3CEFE6B
:101DA800C05BB3FEE05459FE836843F001038360CF
:101DB80000207047836823F0010383600020704788
:101DC80008B5C36823F0C043C360012909D069B9C5
:101DD800C36843F08043C3603220FEF7DBFB00207A
:101DE80008BDC36843F00053C360F5E70120F7E777
:101DF800890141F02001016100230133054A934222
:101E080005D8026912F0200FF7D10020704703208F
:101E1800704700BF400D0300102303610023013306
:101E2800054A934205D8026912F0100FF7D1002035
:101E380070470320704700BF400D0300D0F80038FA
:101E48001943C0F8001800207047000084B02DE93D
:101E5800F041044607A880E80E002546002306E066
:101E680003F1400204EB82020021516001330E2B82
:101E7800F6D9119BF3B9A36B43F40013A363A36BC7
:101E880023F40023A363A36B23F48023A363002319
:101E9800C4F8003E04F50066D4F80038C4F80038E9
:101EA8000C9B012B14D1099B6BB900212046FFF72D
:101EB800C5FF11E0236823F400132360A36B43F4E8
:101EC8000023A363E3E701212046FFF7B7FF03E000
:101ED80003212046FFF7B2FF10212046FFF788FFB5
:101EE800804608B14FF001082046FFF795FF08B17A
:101EF8004FF00108002333617361F3610AE0C3B94D
:101F08004FF00060C2F8000900220A614FF67F32E4
:101F18008A6001330799994210D905EB431202F5FB
:101F28001061D2F800090028E9DB0020C2F8000996
:101F3800EAE74FF09040C2F80009E5E700230AE01D
:101F4800BBB14FF09047C2F8007B002202614FF608
:101F58007F3282600133994210D905EB431202F5B2
:101F68003060D2F8007B002FEADB0027C2F8007B44
:101F7800EBE74FF00067C2F8007BE6E7336923F42C
:101F8800807333610A9B012B1BD00022A2616FF082
:101F9800804262611BB9A36943F01003A361A2697F
:101FA800104B1343A3610D9B1BB1A36943F00803B6
:101FB800A361119B012B0DD04046BDE8F04104B050
:101FC8007047094A3263326B42F4803242F00302AE
:101FD8003263DAE7A36943F0804343F00403A36163
:101FE800EAE700BF00383C8000018000D0F80838DC
:101FF80013F0060307D0022B07D0062B01D00F20C1
:10200800704702207047002070470220704770B464
:102018000B784A78012A22D0D0F81C2803F00F0642
:102028000124B44042EA0442C0F81C2800EB4310E3
:10203800D0F8003B13F4004F0ED1D0F8003B8A686B
:10204800C2F30A02C97842EA8142134343F080533B
:1020580043F40043C0F8003B002070BC7047D0F840
:102068001C4803F00F06B24092B22243C0F81C2865
:1020780000EB4310D0F8002912F4004FECD1D0F84F
:1020880000298C68C4F30A04C97844EA814444EA04
:102098008353134343F0805343F40043C0F800399B
:1020A800DAE7000070B40B784A78012A1FD0D0F81C
:1020B8003C5803F00F06012404FA06F625EA064503
:1020C800C0F83C58D0F81C58097801F00F018C4032
:1020D80025EA0444C0F81C4800EB4310D0F8002B54
:1020E800124B1340C0F8003B002070BC7047D0F87A
:1020F8003C6803F00F0402FA04F4A4B226EA0404CC
:10210800C0F83C48D0F81C48097801F00F018A4013
:1021180092B224EA0202C0F81C2800EB4310D0F85F
:102128000039034A1A40C0F80029DDE70078F3EFC8
:10213800007833EC70B40B784C78012C26D000EB87
:10214800431000F530631C69E40CE4041C611C694D
:1021580024F0FF5424F4C0141C614C690CB18C6841
:102168004C611C6944F400241C611C698D68C5F32A
:1021780012052C431C61012A65D0D0F8003B43F0BE
:102188000443C0F8003B002070BC70474C696CBB2E
:1021980000EB4314D4F8105925F0FF5525F4C01569
:1021A800C4F81059D4F8105945F40025C4F810594A
:1021B800D4F81059ED0CED04C4F81059012A33D0A5
:1021C80000EB4313D3F8002942F00442C3F8002976
:1021D8004B69002BD7D0D0F83428097801F00F04C8
:1021E8000121A1400A43C0F83428CCE700EB43148E
:1021F80004F510642569ED0CED042561256925F0C9
:10220800FF5525F4C01525614E698D68AE4200D989
:102218004D61256945F40025256125694E69C6F398
:10222800120635432561C9E70A691AB100EB431163
:10223800C1F8142900EB4310D0F8002942F00442F9
:10224800C0F800299FE7CA68002A96D05A6194E727
:1022580070B49DF80C4064B903339D0807E000EBA7
:10226800023303F5805351F8046B1E600134AC420D
:10227800F5D3002070BC7047F0B583B00B784C786C
:10228800012C2BD000EB431303F530642569ED0CCA
:10229800ED042561256925F0FF5525F4C015256154
:1022A8004D69002D40F0C58025698E68C6F3120679
:1022B80035432561256945F400252561012A00F08B
:1022C800CD80CA78012A00F0CF80D3F8002B42F0E5
:1022D8000442C3F8002B002003B0F0BD4C6984BB56
:1022E80000EB4314D4F8105925F0FF5525F4C01518
:1022F800C4F81059D4F8105945F40025C4F81059F9
:10230800D4F81059ED0CED04C4F81059012A4CD03A
:1023180000EB4313D3F8004944F00444C3F80049E0
:10232800CC78012C6AD04B69002BD4D0D0F8342853
:10233800097801F00F040121A1400A43C0F83428AC
:10234800C9E700EB4314D4F81059ED0CED04C4F8B8
:102358001059D4F8105925F0FF5525F4C015C4F8C4
:102368001059D4F810694D698F683D44013DB5FB9B
:10237800F7F5474F07EAC5453543C4F81059D4F86F
:1023880010594E69C6F312063543C4F8105904F5BE
:102398001064CD78012DB9D1256925F0C045256196
:1023A800256945F000552561B0E70A691AB100EBC7
:1023B8004314C4F81429CA78012A08D000EB43133F
:1023C800D3F8002942F00442C3F8002983E7D0F883
:1023D800082812F4807F08D100EB4311D1F80029B6
:1023E80042F00052C1F80029E8E700EB4311D1F8A8
:1023F800002942F08052C1F80029DFE7D0F80848E8
:1024080014F4807F0ED1D3F8004944F00054C3F887
:10241800004914460B46C9681A789B8A0094FFF74E
:1024280017FF58E7D3F8004944F08054C3F800492F
:10243800EFE78E683544013DB5FBF6F52669144F84
:1024480007EAC5473E43266127698E68ADB206FB99
:1024580005F5C5F312053D4325612FE7CA68002A33
:102468003FF42FAF62612CE7D0F8082812F4807F80
:1024780006D1D3F8002B42F00052C3F8002B24E712
:10248800D3F8002B42F08052C3F8002B1DE700BFA1
:102498000000F81F03329208002393420CD210B4B4
:1024A80000F58054246841F8044B01339342F7D374
:1024B80008465DF8044B7047084670470B784A7821
:1024C800012A14D000EB4310D0F8002B002A06DBB9
:1024D8002BB1D0F8003B23F08043C0F8003BD0F884
:1024E800003B43F40013C0F8003B0020704700EBAA
:1024F8004310D0F80029002A06DB2BB1D0F80039A8
:1025080023F08043C0F80039D0F8003943F40013B1
:10251800C0F80039E9E70B784A78012A0ED000EBB9
:102528004310D0F8003B23F40013C0F8003BCB78ED
:10253800023BDBB2012B15D90020704700EB43109A
:10254800D0F8003923F40013C0F80039CB78023BE7
:10255800DBB2012BF0D8D0F8003943F08053C0F833
:102568000039E9E7D0F8003B43F08053C0F8003B5E
:10257800E2E7D0F8003823F4FE63C0F80038D0F85A
:102588000038090101F4FE610B43C0F8003800204F
:10259800704708B5D0F8043823F00203C0F80438AF
:1025A8000320FDF7F7FF002008BD08B5D0F8043870
:1025B80043F00203C0F804380320FDF7EBFF0020C6
:1025C80008BD4269806910407047D0F8183800F596
:1025D8000060C0691840000C7047D0F8183800F542
:1025E8000060C069184080B2704700EB4111D1F813
:1025F800082B00F5006040691040704710B4D0F80F
:102608001048D0F8343801F00F02D340DB01DBB2B8
:10261800234300EB411000F51060806818405DF816
:10262800044B7047406900F001007047D0F800394A
:1026380023F4FF6323F00703C0F8003900F50063B3
:102648009A6802F00602042A05D05A6842F4807299
:102658005A6000207047D0F8002942F00302C0F801
:102668000029F2E710B4046C154B9C4203D9D0F84A
:10267800003B002B16DB0024C0F8104BD0F8104BA1
:1026880044F40024C0F8104BD0F8104B44F0180460
:10269800C0F8104BD0F8104B44F0C044C0F8104BB1
:1026A800012903D000205DF8044B7047C0F8142BB3
:1026B800D0F8003B43F08023C0F8003BF2E700BFAE
:1026C8000A30544F7047000010B5062807D9084C47
:1026D8002046FDF707FF074B1B88235210BD044C0B
:1026E8002046FDF7FFFE044B1B882352F6E700BF88
:1026F800640200208C4300088843000808B5AB4BEF
:102708001968AB48FDF7E4FE002800F0CD80A74B20
:102718005968A748FDF7DCFE002800F0D280A34BDB
:102728009968A348FDF7D4FE002800F0D7809F4B96
:10273800D9689F48FDF7CCFE002800F0DC809B4B51
:1027480019699B48FDF7C4FE002800F0E180974B0B
:1027580059699748FDF7BCFE002800F0E680934BC6
:1027680099699348FDF7B4FE002800F0EB808F4B81
:10277800D9698F48FDF7ACFE002800F0F0808B4B3C
:10278800196A8B48FDF7A4FE002800F0F580874BF6
:10279800596A8748FDF79CFE002800F0FA80834BB1
:1027A800996A8348FDF794FE002800F01B817F4B4F
:1027B800D96A7F48FDF78CFE002800F020817B4B0A
:1027C800196B7B48FDF784FE002800F02581774BC4
:1027D800596B7748FDF77CFE002800F02A81734B7F
:1027E800996B7348FDF774FE002800F02F816F4B3A
:1027F800D96B6F48FDF76CFE002800F034816B4BF5
:10280800196C6B48FDF764FE002800F03981674BAE
:10281800596C6748FDF75CFE002800F03E81634B69
:10282800996C6348FDF754FE002800F043815F4B24
:10283800D96C5F48FDF74CFE002800F048815B4BDF
:10284800196D5B48FDF744FE002800F04D81574B99
:10285800596D5748FDF73CFE002800F05281534B54
:10286800996D5348FDF734FE002800F057814F4B0F
:10287800D96D4F48FDF72CFE002800F05C814B4BCA
:10288800196E4B48FDF724FE002840F06181484B43
:102898001A7D01321A754748474A12880280012179
:1028A800597501F03BFA0BE0414B1A7D01321A755C
:1028B8004048424A128802800121597501F02EFAD7
:1028C80008BD3B4B1A7D01321A753A483C4A1288BA
:1028D80002800121597501F021FAF1E7344B1A7D84
:1028E80001321A753348374A128802800121597516
:1028F80001F014FAE4E72E4B1A7D01321A752D48BF
:10290800314A128802800121597501F007FAD7E788
:10291800274B1A7D01321A7526482C4A12880280E4
:102928000121597501F0FAF9CAE7214B1A7D0132E4
:102938001A752048264A128802800121597501F02B
:10294800EDF9BDE71A4B1A7D01321A751948214A6B
:10295800128802800121597501F0E0F9B0E7144BA3
:102968001A7D01321A7513481B4A12880280012108
:10297800597501F0D3F9A3E70D4B1A7D01321A7589
:102988000C48164A128802800121597501F0C6F9CF
:1029980096E7074B1A7D01321A750648104A1288C5
:1029A80002800121597501F0B9F989E70800002072
:1029B8006402002098020020F043000890430008B9
:1029C80094430008984300089C430008A04300086B
:1029D800A4430008A8430008AC430008B04300081B
:1029E800B4430008654B1A7D01321A756448654A7C
:1029F800128802800121597501F090F960E75F4B58
:102A08001A7D01321A755E485F4A128802800121D8
:102A1800597501F083F953E7584B1A7D01321A753D
:102A280057485A4A128802800121597501F076F9EF
:102A380046E7524B1A7D01321A755148544A12889A
:102A480002800121597501F069F939E74B4B1A7D6C
:102A580001321A754A484F4A128802800121597575
:102A680001F05CF92CE7454B1A7D01321A75444890
:102A7800494A128802800121597501F04FF91FE770
:102A88003E4B1A7D01321A753D48444A128802802D
:102A98000121597501F042F912E7384B1A7D0132CC
:102AA8001A7537483E4A128802800121597501F08B
:102AB80035F905E7314B1A7D01321A753048394A24
:102AC800128802800121597501F028F9F8E62B4B8C
:102AD8001A7D01321A752A48334A12880280012168
:102AE800597501F01BF9EBE6244B1A7D01321A7572
:102AF80023482E4A128802800121597501F00EF9E7
:102B0800DEE61E4B1A7D01321A751D48284A1288C6
:102B180002800121597501F001F9D1E6174B1A7DA0
:102B280001321A751648234A128802800121597504
:102B380001F0F4F8C4E6114B1A7D01321A751048F9
:102B48001D4A128802800121597501F0E7F8B7E69D
:102B58001A4B596E0948FDF7BBFC00287FF4B0AE4C
:102B6800064B1A7D01321A750548154A12880280EB
:102B78000121597501F0D2F8A2E600BF64020020D5
:102B880098020020B8430008BC430008C04300086E
:102B9800C4430008C8430008CC430008D0430008D9
:102BA800D4430008D8430008DC430008E043000889
:102BB800E4430008E8430008EC430008080000204C
:102BC800F443000808B5FFF799FD024B00221A707C
:102BD80008BD00BF6402002010B5D0F89042D0F8BC
:102BE80094325BB194F80002FF2807D09B6894F8F0
:102BF800012221469847FF2384F80032002010BDA7
:102C0800432303800048704770000020432303805B
:102C180000487047B40000204323038000487047F1
:102C2800F80000200A230380004870473C01002078
:102C380038B50446D0F8905201F07FF9C5F80C0277
:102C4800D4F890324BB1D4F89432DB6805F50371AF
:102C5800D5F804029847002038BD0220FCE770B57B
:102C6800D0F89022D0F89852FAB101EB8104A30071
:102C78000344DB694BB1C1EBC106B40025446D6C5C
:102C8800B3FBF5F405FB14331BB10020C2F81402A2
:102C980070BD01EB8102930003440024DC612346EC
:102CA800224601F08CF92046F2E70220F0E770B5E1
:102CB80082B005460C46D0F8906200238DF80730A4
:102CC800ADF804300B7813F0600227D0202A56D1D3
:102CD800CA883AB9D0F894329B6800224878984755
:102CE80000204FE013F0800F0CD0D0F894329B688E
:102CF800314660789847E2883146284600F094FDCE
:102D080000203FE04B7886F800328B7986F8013254
:102D1800CA88314600F09DFD002033E04B780A2B2D
:102D280014D00B2B21D01BB100F083FA022029E02C
:102D380090F87432032B05D1022201A900F074FD2A
:102D480000201FE000F075FA02201BE090F87432B2
:102D5800032B06D101220DF1070100F065FD0020CB
:102D680010E000F066FA02200CE090F87432032BB1
:102D780001D1002006E000F05CFA022002E000F039
:102D880058FA022002B070BD38B50446812101F01E
:102D9800F6F80025E5620121204601F0F0F8C4F8B4
:102DA80058518221204601F0EAF82564D4F890327F
:102DB8004BB1D4F894325B689847D4F8900201F08C
:102DC800FDF9C4F89052002038BD38B50446037C9C
:102DD800A3BB4FF400730222812101F0C5F801253D
:102DE800E5624FF4007302222946204601F0BCF840
:102DF800C4F85851082303228221204601F0B4F870
:102E0800012323644FF4077001F0D0F90546C4F894
:102E1800900268B3D4F894321B6898470023C5F829
:102E28001432C5F81832237CC3B14023D5F80422E4
:102E38000121204601F0CBF8002038BD40230222B2
:102E4800812101F091F80125E562402302222946FB
:102E5800204601F089F8C4F85851CBE74FF40073C5
:102E6800D5F804220121204601F0B1F80020E4E75A
:102E78000120E2E719B1C0F894120020704702203F
:102E88007047D0F89032C3F80812C3F81022002017
:102E98007047D0F89032C3F8041200207047D0F879
:102EA8009022A2B108B5D2F814320BB1012008BDA6
:102EB8000123C2F81432D2F810320363B2F8103288
:102EC800D2F80822812101F07AF80020EFE70220E9
:102ED8007047D0F890229AB108B5037C3BB14023E3
:102EE800D2F80422012101F072F8002008BD4FF445
:102EF8000073D2F80422012101F069F80020F5E7F7
:102F08000220704798B108B50346D0F88C0210B17A
:102F18000020C3F88C0209B1C3F8881218460123AF
:102F280080F87432027000F0BDFF002008BD022056
:102F3800704719B1C0F88C12002070470220704702
:102F480008B501F009F8002008BD08B5D0F88C32A2
:102F580033B11B68984708B9002008BD0220FCE778
:102F68000220FAE708B5D0F88C325B689847002051
:102F780008BD38B5044600F52075284600F045F927
:102F88000123C4F86C32B4F88632C4F8703294F86D
:102F9800801201F01F03012B0ED03BB1022B10D081
:102FA80001F08001204600F0F2FF03E029462046A8
:102FB80000F0B5FA002038BD2946204600F0E3FAB3
:102FC800F8E72946204600F00EFBF3E738B504463B
:102FD800A1BB1046D4F86C32032B03D0052B24D0A8
:102FE800002037E0D4F84C31D4F8502193420DD961
:102FF8009B1AC4F84C319A4206D99AB20146204627
:1030080000F036FC002025E092B2F7E7D4F88C32C5
:103018001B692BB194F87422032A01D120469847E2
:10302800204600F02DFC002014E00025C4F86C5266
:103038002946204600F0ABFF28460BE00A46D0F8A8
:103048008C329B693BB190F87412032905D1114663
:103058009847002038BD0220FCE70220FAE710B5A7
:103068000446002953D11046D4F86C32022B0CD0F8
:10307800042B00D01BB98021204600F088FF94F86B
:103088007832012B3FD000204DE0236A626A9342D8
:103098001DD8E169B1FBF2F302FB13132BB98A4285
:1030A80003D8D4F8703299421FD3D4F88C32DB6835
:1030B8002BB194F87422032A01D120469847802125
:1030C800204600F064FF204600F0E5FBD7E79A1A97
:1030D800226292B20146204600F0B3FB00231A4652
:1030E8001946204600F073FFC9E700221146204622
:1030F80000F0A7FB0021C4F870120B460A462046D0
:1031080000F065FFBBE7002084F878020BE00A4670
:10311800D0F88C325B693BB190F87412032905D161
:1031280011469847002010BD0220FCE70220FAE76C
:1031380070B5044640230022114600F015FF012512
:10314800C4F844514026C4F8506133460022802117
:10315800204600F009FFA561666284F874520023D6
:10316800C4F86C326360C4F87C32D4F890322BB166
:10317800D4F88C325B68002120469847002070BD47
:1031880001740020704790F8743280F87532042377
:1031980080F874320020704790F8753280F87432E5
:1031A8000020704708B590F87432032B01D0002036
:1031B80008BDD0F88C32DB69002BF8D09847F6E7C9
:1031C80000207047002070470020704708B5012292
:1031D80080F87422D0F88C22526801799047002038
:1031E80008BD002302E00133DBB201300278002A77
:1031F800F9D11846704708B54B88012B00D008BD97
:10320800C0F87C3200F03CFBF9E70B7803704B7890
:1032180043708B78CA7803EB022343800B794A7991
:1032280003EB022383808B79CA7903EB0223C380E3
:10323800704710B50446802100F0A9FE0021204601
:1032480000F0A5FE10BD30B583B005460C464A888F
:10325800130A013B062B00F28480DFE803F0041612
:103268002A8282667300D0F888321B680DF1060145
:10327800007C9847BDF8062012B1E388002B74D172
:10328800E388002B7BD003B030BD037C43B9D0F872
:103298008C329B6A0DF10600984702234370E9E7D8
:1032A800D0F88C32DB6A0DF1060098470223437090
:1032B800E0E7D2B2052A34D8DFE802F0030B131B8B
:1032C800232BD0F888325B680DF10601007C984703
:1032D800D0E7D0F888329B680DF10601007C98474A
:1032E800C8E7D0F88832DB680DF10601007C984702
:1032F800C0E7D0F888321B690DF10601007C9847B9
:10330800B8E7D0F888325B690DF10601007C984770
:10331800B0E7D0F888329B690DF10601007C984728
:10332800A8E72146FFF785FFADE7037C33B9D0F85E
:103338008C325B6B0DF1060098479BE72146FFF73F
:1033480078FFA0E7037C43B9D0F88C321B6B0DF1F2
:1033580006009847072343708CE72146FFF769FF6B
:1033680091E72146FFF765FF8DE79A4228BF1A4685
:10337800ADF806200146284600F056FA80E72846B0
:1033880000F07EFA7FE738B504468B88F3B9CB881E
:10339800E3B94B887F2B19D803F07F0590F8743276
:1033A800032B0CD080F87652294600F000FE204608
:1033B80000F066FA35B1022384F8743209E0FFF7A9
:1033C80038FF06E0012384F8743202E02046FFF754
:1033D80030FF38BD38B504460D468978284B19703A
:1033E80001290ED890F87432022B0ED0032B21D06D
:1033F8002946FFF71EFF224B19782046FFF7B2FD3A
:1034080002E02946FFF715FF38BD81B1416003236B
:1034180080F87432FFF799FD022803D0204600F0A7
:103428002FFAF1E729462046FFF703FFECE700F003
:1034380027FAE9E789B1436899421DD0D9B2FFF765
:1034480091FD0F4B197861602046FFF77EFD022839
:103458000DD0204600F014FAD6E7022380F8743223
:103468004160FFF77FFD204600F00AFACCE72946C5
:103478002046FFF7DEFEC7E700F002FAC4E700BF08
:103488007A02002008B5CB88012B0BD190F8743252
:103498009BB1022B09D9032B0FD10122011D00F08A
:1034A800C3F901E0FFF7C5FE08BD0146002341F856
:1034B800083F012200F0B8F9F6E7FFF7BAFEF3E794
:1034C80008B590F87432013B022B12D8CB88022B36
:1034D8000CD10123C360D0F87C320BB10323C36045
:1034E800022200F10C0100F09FF908BDFFF7A1FED0
:1034F800FBE7FFF79EFEF8E708B590F87432013B4A
:10350800022B09D84B88012B00D008BD0023C0F836
:103518007C3200F0B5F9F8E7FFF78BFEF5E708B560
:103528000B7803F06003202B05D0402B03D043B168
:10353800FFF77FFE03E0D0F88C329B6898470020A5
:1035480008BD4B78092B1BD8DFE803F011171A14B4
:103558001A08051A0E0BFFF776FEF0E7FFF713FFC0
:10356800EDE7FFF737FFEAE7FFF78CFFE7E7FFF73D
:10357800A7FFE4E7FFF73FFEE1E7FFF7BDFFDEE760
:10358800FFF757FEDBE738B505460C460B7803F026
:103598006003202B06D0402B04D01BB1FFF749FE57
:1035A800002038BD95F87432013B022B16D82379D8
:1035B800012B0ED8D5F88C329B68214628469847AF
:1035C800E388002BECD10028EAD1284600F058F90E
:1035D800E6E721462846FFF72CFEE1E72146284684
:1035E800FFF727FEDCE738B504468A880B7803F036
:1035F8006003202B08D0D0B2402B05D05BB1204609
:10360800FFF717FE002005E0D4F88C329B682046AF
:103618009847002038BD202B05D1D4F88C329B6800
:1036280020469847F6E74B78012B32D0002B5ED026
:10363800032B40F0D68094F87432022B06D0032B6B
:1036480016D02046FFF7F5FD0020E3E708B18028F3
:1036580004D12046FFF7EDFD0020DBE701462046B8
:1036680000F095FC8021204600F091FC0020D1E775
:103678004B8823B918B1802801D0CB8823B12046C4
:1036880000F0FEF80020C5E70146204600F07FFC68
:10369800F5E794F87432022B06D0032B16D0204697
:1036A800FFF7C7FD0020B5E708B1802804D1204600
:1036B800FFF7BFFD0020ADE70146204600F067FC9C
:1036C8008021204600F063FC0020A3E74B88002BF4
:1036D80040F08C8010F07F0F04D1204600F0D0F825
:1036E800002097E70146204600F059FCF5E794F8DA
:1036F8007432022B06D0032B29D02046FFF799FD00
:10370800002087E708B1802812D112F0800F14D169
:1037180000F07F0000EB8000830003F5A073E11840
:1037280000250D600222204600F07EF8284671E749
:103738002046FFF77EFD00206CE700F07F0000EBDD
:103748008000830003F1100121440431E8E752B2FC
:10375800002A1EDB00F00F0303EB83039D002544C2
:10376800D5F844311BB3002A26DB00F07F0202EBB8
:103778008202930003F5A073E51808B1802825D1CB
:1037880000232B6002222946204600F04DF8002035
:1037980040E700F00F0303EB83039D002544AB696A
:1037A800002BE0D12046FFF744FD002032E72046F9
:1037B800FFF73FFD00202DE700F07F0202EB8202B9
:1037C800930003F1100525440435D6E70146204649
:1037D80000F09CFB10B101232B60D3E700232B6082
:1037E800D0E72046FFF725FD002013E7002011E76A
:1037F800C8B170B50D4616460446FFF7F2FC013015
:1038080040003080287003236B70022307E00134E6
:103818005A1CD2B2E9540233DBB20021A9542178F0
:103828000029F4D170BD704710B513460222C0F8C4
:103838006C22C36103620A46002100F0C0FB00202D
:1038480010BD08B513460A46002100F0B8FB002059
:1038580008BD10B513460322C0F86C22C0F84831E1
:10386800C0F84C310A46002100F0B1FB002010BD21
:1038780008B513460A46002100F0A9FB002008BD40
:1038880008B50423C0F86C3200231A46194600F024
:1038980096FB002008BD08B50523C0F86C3200234C
:1038A8001A46194600F093FB002008BDF0B58BB00E
:1038B80000240594069407940894099401942C4BC9
:1038C8001A6B42F004021A631A6B02F004020192A6
:1038D800019A02941A6B42F080021A631A6B02F082
:1038E80080020292029A03941A6B42F001021A6350
:1038F8001A6B02F001020392039A04941A6B42F0C5
:1039080008021A631B6B03F008030493049B194E07
:1039180022464FF480413046FCF793FF01221146BE
:103928003046FCF78EFF144F22464FF4704138465C
:10393800FCF787FF44F201030593012506950794D8
:10394800089405A93046FCF7A3FE0595069407944C
:1039580005A90A48FCF79CFE4FF4704305930695A9
:103968000794089405A93846FCF792FE0BB0F0BD01
:103978000038024000080240000C024000000240EB
:1039880008B50748074B036042F20F7343600023F2
:103998008360B322C26003618361FEF70FF908BD3B
:1039A800C00200200044014008B502682E4B9A422C
:1039B80010D02E4B1B68B3F57A6F02D92B4B072218
:1039C8001A602A4B5B68B3F57A6F02D9274B0B2232
:1039D8005A6008BD01212648FCF72CFF012818D0A1
:1039E800224A5368013353601068002835D1122BDE
:1039F80036D000224FF470411E48FCF722FF012206
:103A08004FF480411C48FCF71CFF184B00221A6039
:103A1800CFE7164A13680133136000215160062B63
:103A28000ED8002BC5D001224FF400411148FCF7F5
:103A380008FF00224FF480410F48FCF702FFB8E767
:103A480001224FF470410B48FCF7FBFE00224FF4B3
:103A580080410948FCF7F5FEABE7FEF735FEC8E7FD
:103A6800FFF7B0F8C5E700BF004401407C02002022
:103A780000000240000C02400008024030B595B03A
:103A88003022002108A800F0A1FB0024039404942C
:103A980005940694079401941B4B1A6C42F08052CB
:103AA8001A641B6C03F080530193019B0294174B1B
:103AB8001A6842F440421A601B6803F440430293B8
:103AC800029B012308934FF48033099302250E9536
:103AD8004FF480030F9304231093482311931295F6
:103AE8000323139308A8FDF75FFC0F2303930495A2
:103AF80005944FF4805306930793294603A8FDF7CE
:103B08008BFE15B030BD00BF003802400070004089
:103B180008B5FCF713FDFFF7B1FFFFF7C7FE00F08C
:103B2800ADF8FFF72DFF0348FDF728FFFEF7CAFDA4
:103B3800FCE700BFC00200207047000000B583B05A
:103B4800002100910C4B5A6C42F480425A645A6C22
:103B580002F480420092009A01911A6C42F080525D
:103B68001A641B6C03F080530193019B0720FCF738
:103B780025FD03B05DF804FB0038024002680E4BD7
:103B88009A4200D0704700B583B00021019103F537
:103B980074435A6C42F400325A645B6C03F4003389
:103BA8000193019B0A461920FCF71AFD1920FCF71E
:103BB8004BFD03B05DF804FB004401407047FEE78D
:103BC800FEE7FEE7FEE770477047704708B5FCF769
:103BD800CFFC08BD08B50248FDF7E5FE08BD00BFEB
:103BE800C002002008B50248FDF700F808BD00BF74
:103BF8009C15002008B503460B4A126842B10A4AD0
:103C0800106803446A46934206D8074A136008BD01
:103C1800054A06491160F2E700F09EFA0C2303609A
:103C28004FF0FF30F3E700BF84020020A81B0020FC
:103C38000F49D1F8883043F47003C1F888300D4B30
:103C48001A6842F001021A60002098601A6822F08F
:103C5800847222F480321A60074A5A601A6822F481
:103C680080221A60D8604FF000638B60704700BFF5
:103C780000ED00E0003802401030002408B50022B2
:103C88000F491048FFF73EF970B90F490D48FFF783
:103C980050F960B90D490B48FFF7ECF850B90948DD
:103CA800FFF74EF948B908BDFFF746FFEDE7FFF704
:103CB80043FFEFE7FFF740FFF1E7FFF73DFFF2E7CC
:103CC800C8010020000300204801002084010020D2
:103CD800002070470020704710B5054C014620466B
:103CE800FFF7D7F82046FFF7F4F8002010BD00BF13
:103CF8000003002010B5064C002206492046FFF7B5
:103D0800C0F805492046FFF7C4F8002010BD00BFE1
:103D1800000300209C0D00209C050020094BD3F8CF
:103D28009032D3F814320BB10120704710B50A460F
:103D38000146044C2046FFF7A4F82046FFF7AFF8E9
:103D480010BD00BF0003002030B589B000230393E5
:103D580004930593069307930368B3F1A04F01D02A
:103D680009B030BD00250195164C236B43F00103C3
:103D78002363236B03F001030193019B4FF4C053AA
:103D8800039302230493032306930A23079303A9A7
:103D98000D48FCF77DFC636B43F080036363029579
:103DA800636C43F480436364636C03F4804302935D
:103DB800029B2A4629464320FCF712FC4320FCF7C5
:103DC80043FCCDE7003802400000024008B500F58A
:103DD8007171D0F80404FFF7CCF808BD08B5C1EB41
:103DE800C10293000344D3F80822D0F80404FFF773
:103DF800EDF808BD08B5C1EBC102930003449A6C05
:103E0800D0F80404FFF72BF908BD08B5D0F804046E
:103E1800FFF7C8F908BD10B50446C368022B01D0E6
:103E2800FFF78AFE0121D4F80404FFF7A9F9D4F8B2
:103E38000404FFF77DF910BD10B50446D0F804045A
:103E4800FFF7A1F92268D2F8003E43F00103C2F857
:103E5800003E236A23B1034A136943F00603136142
:103E680010BD00BF00ED00E008B5D0F80404FFF76E
:103E780093F908BD08B5D0F80404FFF7A3F908BD05
:103E880008B5D0F80404FFF79BF908BD08B5D0F8C9
:103E98000404FFF799F908BD08B5D0F80404FFF742
:103EA80095F908BD03780BB10020704710B503469B
:103EB8001548C0F80434C3F898024FF0A0430360D3
:103EC800042343600222C260002303618261C3614C
:103ED80003624362C3620363FCF723FD80B90A4CA3
:103EE80080212046FDF75BFA402200212046FDF79D
:103EF80032FA802201212046FDF72DFA002010BD5C
:103F0800FFF71AFEEBE700BF9C150020D0F89832A7
:103F180011F0800F08D101F07F01C1EBC1018A00C7
:103F2800134493F8FE01704701F07F01C1EBC10112
:103F38008A00134493F83E00704708B5D0F89802F9
:103F4800FDF75EF908BD18B1022803D002207047BA
:103F5800002070470120704708B5D0F89802FCF798
:103F680071FDFFF7F0FF08BD10B51C461346224649
:103F7800D0F89802FDF79EF8FFF7E5FF10BD08B5E9
:103F8800D0F89802FDF7D7F8FFF7DDFF08BD08B5B0
:103F9800D0F89802FDF767F9FFF7D5FF08BD08B517
:103FA800D0F89802FDF7A0F9FFF7CDFF08BD08B5D6
:103FB800D0F89802FDF76AF8FFF7C5FF08BD08B505
:103FC800D0F89802FDF725F9FFF7BDFF08BD08B541
:103FD800D0F89802FDF7E6F8FFF7B5FF08BD000036
:103FE80012230B80004870479401002004230B80A3
:103FF80000487047A80100200023934216D230B42D
:104008000BE0373401F8134000015C00013400254F
:104018000D550133DBB2934206D2040F092CF0D8B8
:10402800303401F81340EFE730BC704770470000A8
:1040380038B50B4B186804331C6804331B68C01868
:1040480000D138BD074D082205F11A01FFF7D4FF4A
:10405800042205F12A012046FFF7CEFFF1E700BF51
:10406800107AFF1F9401002008B51A230B80FFF770
:10407800DFFF014808BD00BFAC01002008B50A46B3
:1040880028B105490548FFF7B3FB034808BD0249B5
:104098000248FFF7ADFBF8E7A419002088440008A0
:1040A80010B5044C0A4621460348FFF7A1FB2046F9
:1040B80010BD00BFA4190020A044000808B50A4696
:1040C80028B105490548FFF793FB034808BD024995
:1040D8000248FFF78DFBF8E7A4190020B444000854
:1040E80008B50A4628B105490548FFF781FB03488A
:1040F80008BD02490248FFF77BFBF8E7A419002036
:10410800C0440008DFF834D0002103E00C4B5B58B2
:10411800435004310B480C4B42189A42F6D30B4AD1
:1041280002E0002342F8043B094B9A42F9D3FFF717
:104138007FFD00F017F8FFF7EBFC70470000022046
:10414800E044000800000020480200204802002047
:10415800A81B0020FEE70000014B1868704700BF4D
:10416800E401002070B50D4E0D4CA41BA4100025D1
:10417800A54209D10B4E0C4C00F0EAF8A41BA41080
:104188000025A54205D170BD56F825309847013560
:10419800EEE756F8253098470135F2E7D84400088D
:1041A800D8440008D8440008DC440008024B014603
:1041B800186800F061B800BFE4010020024B014616
:1041C800186800F00BB800BFE40100200244034661
:1041D800934200D1704703F8011BF9E738B505464B
:1041E800002945D051F8043C0C1F002BB8BFE41837
:1041F80000F0ACF81F4A1368104633B963601460C6
:104208002846BDE8384000F0A2B8A3420CD921687E
:104218006218934204BF1A685B68636004BF52184F
:1042280022600460ECE713465A680AB1A242FAD940
:1042380019685818A0420BD12068014458188242C6
:104248001960DDD1106852685A6001441960D7E7D7
:1042580002D90C232B60D3E7206821188A4204BFB7
:1042680011685268626004BF091821605C60C7E782
:1042780038BD00BF8C02002070B5CD1C25F00305A9
:1042880008350C2D38BF0C25002D064601DBA94248
:1042980003D90C233360002070BD00F057F8214A81
:1042A8001468214691B9204C23681BB9304600F0A8
:1042B8003DF820602946304600F038F8431C24D1E8
:1042C8000C233360304600F042F8E4E70B685B1BD0
:1042D80018D40B2B0FD90B60CD50CC18304600F0FA
:1042E80036F804F10B00231D20F00700C31AD3D0C1
:1042F8005A42E250D0E78C424B6816BF63601360A5
:104308000C46EBE70C464968CCE7C41C24F00304D0
:10431800A04205D0211A304600F008F80130CFD06D
:104328002560DBE78C0200209002002038B5064C9F
:104338000023054608462360FFF75CFC431C02D1B6
:10434800236803B12B6038BDA41B00207047704759
:10435800F8B500BFF8BC08BC9E467047F8B500BF6A
:08436800F8BC08BC9E4670473A
:104370000000000000000000010203040607080915
:1043800000000000010203042E0000005F00000096
:104390004100000042000000430000004400000013
:1043A00045000000460000004700000048000000F3
:1043B000490000004A0000004B0000004C000000D3
:1043C0004D0000004E0000004F00000050000000B3
:1043D0005100000052000000530000005400000093
:1043E0005500000056000000570000005800000073
:1043F000590000005A0000005F5F2E2E00000000F0
:104400005F2E5F5F000000005F2E2E5F0000000047
:104410002E5F5F002E2E2E5F000000002E2E5F000C
:104420002E2E2E002E5F2E005F5F2E5F00000000FC
:104430002E5F5F2E000000005F5F5F005F2E0000B8
:104440005F5F00002E5F2E2E000000005F2E5F00D9
:104450002E5F5F5F000000002E2E00002E2E2E2EFD
:10446000000000005F5F2E002E2E5F2E0000000077
:104470005F2E2E005F2E5F2E000000005F2E2E2E7E
:10448000000000002E5F000053544D333220566967
:10449000727475616C20436F6D506F727400000010
:1044A00053544D6963726F656C656374726F6E69A6
:1044B0006373000043444320436F6E6669670000E6
:1044C00043444320496E7465726661636500000071
:0844D00038BDFF7F0100000070
:0444D800BD0100081A
:0444DC00990100083A
:1044E0000100000010000000844400087C44000823
:1044F00074440008704400088843000868440008B9
:10450000644400085C440008584400085044000813
:104510004C44000844440008404400083C4400085F
:1045200038440008304400082844000824440008A7
:10453000204400088C4300081C4400081444000870
:10454000104400080844000800440008F84300082C
:1045500009024300020100C0320904000001020206
:1045600001000524001001052401000104240202B9
:104570000524060001070582030800100904010054
:10458000020A000000070501024000000705810241
:104590004000000009024300020100C0320904008B
:1045A00000010202010005240010010524010001A0
:1045B00004240202052406000107058203080010F6
:1045C00009040100020A00000007050102000200C0
:1045D000070581020002000009074300020104C030
:1045E0003209040000010202010005240010010547
:1045F00024010001042402020524060001070582AB
:104600000308001009040100020A00000007050168
:104610000240000007058102400000000A06000277
:104620000000004001000000D32D0008912D00087B
:10463000B72C000800000000E12B0008672C0008E0
:10464000392C0008000000000000000000000000FD
:10465000152C0008092C0008212C00082D2C00081E
:104660000024F400FD3C0008D93C0008DD3C0008B3
:10467000E13C00081201000202020040830440579E
:104680000002010203010000040309041A030000F0
:10469000000000000000000000000000000000001A
:1046A0000000000000000000E93F0008F53F00089E
:1046B000A94000088540000871400008C540000876
:1046C000E9400008E80100200000000000000000B0
:1046D00000000000000000000000000000000000DA
:1046E00000000000000000000000000000000000CA
:1046F00000000000000000000000000000000000BA
:1047000000000000000000000000000000000000A9
:104710000000000000000000000000000000000099
:08472000000000000000000091
:040000050800410DA1
:00000001FF
